{
  "_format": "hh-sol-artifact-1",
  "contractName": "ROSCA",
  "sourceName": "contracts/ROSCA.sol",
  "abi": [
    {
      "inputs": [
        {
          "internalType": "address",
          "name": "_usdcAddress",
          "type": "address"
        }
      ],
      "stateMutability": "nonpayable",
      "type": "constructor"
    },
    {
      "inputs": [
        {
          "internalType": "address",
          "name": "owner",
          "type": "address"
        }
      ],
      "name": "OwnableInvalidOwner",
      "type": "error"
    },
    {
      "inputs": [
        {
          "internalType": "address",
          "name": "account",
          "type": "address"
        }
      ],
      "name": "OwnableUnauthorizedAccount",
      "type": "error"
    },
    {
      "inputs": [],
      "name": "ReentrancyGuardReentrantCall",
      "type": "error"
    },
    {
      "anonymous": false,
      "inputs": [
        {
          "indexed": true,
          "internalType": "uint256",
          "name": "groupId",
          "type": "uint256"
        },
        {
          "indexed": false,
          "internalType": "address",
          "name": "winner",
          "type": "address"
        },
        {
          "indexed": false,
          "internalType": "uint256",
          "name": "payout",
          "type": "uint256"
        },
        {
          "indexed": false,
          "internalType": "uint256",
          "name": "dividendPerMember",
          "type": "uint256"
        }
      ],
      "name": "AuctionWinnerSelected",
      "type": "event"
    },
    {
      "anonymous": false,
      "inputs": [
        {
          "indexed": true,
          "internalType": "uint256",
          "name": "groupId",
          "type": "uint256"
        },
        {
          "indexed": true,
          "internalType": "address",
          "name": "bidder",
          "type": "address"
        },
        {
          "indexed": false,
          "internalType": "uint256",
          "name": "discount",
          "type": "uint256"
        }
      ],
      "name": "BidPlaced",
      "type": "event"
    },
    {
      "anonymous": false,
      "inputs": [
        {
          "indexed": true,
          "internalType": "uint256",
          "name": "groupId",
          "type": "uint256"
        },
        {
          "indexed": true,
          "internalType": "address",
          "name": "member",
          "type": "address"
        },
        {
          "indexed": false,
          "internalType": "uint256",
          "name": "amount",
          "type": "uint256"
        }
      ],
      "name": "ContributionDeposited",
      "type": "event"
    },
    {
      "anonymous": false,
      "inputs": [
        {
          "indexed": true,
          "internalType": "address",
          "name": "member",
          "type": "address"
        },
        {
          "indexed": false,
          "internalType": "uint256",
          "name": "amount",
          "type": "uint256"
        }
      ],
      "name": "DividendWithdrawn",
      "type": "event"
    },
    {
      "anonymous": false,
      "inputs": [
        {
          "indexed": true,
          "internalType": "uint256",
          "name": "groupId",
          "type": "uint256"
        },
        {
          "indexed": false,
          "internalType": "string",
          "name": "name",
          "type": "string"
        }
      ],
      "name": "GroupStarted",
      "type": "event"
    },
    {
      "anonymous": false,
      "inputs": [
        {
          "indexed": true,
          "internalType": "address",
          "name": "previousOwner",
          "type": "address"
        },
        {
          "indexed": true,
          "internalType": "address",
          "name": "newOwner",
          "type": "address"
        }
      ],
      "name": "OwnershipTransferred",
      "type": "event"
    },
    {
      "inputs": [],
      "name": "BPS_DENOMINATOR",
      "outputs": [
        {
          "internalType": "uint256",
          "name": "",
          "type": "uint256"
        }
      ],
      "stateMutability": "view",
      "type": "function"
    },
    {
      "inputs": [
        {
          "internalType": "string",
          "name": "_name",
          "type": "string"
        },
        {
          "internalType": "uint256",
          "name": "_contributionAmount",
          "type": "uint256"
        },
        {
          "internalType": "uint256",
          "name": "_maxMembers",
          "type": "uint256"
        },
        {
          "internalType": "uint256",
          "name": "_cycleDuration",
          "type": "uint256"
        },
        {
          "internalType": "uint256",
          "name": "_auctionDuration",
          "type": "uint256"
        },
        {
          "internalType": "uint256",
          "name": "_minDefaultDiscount",
          "type": "uint256"
        }
      ],
      "name": "createGroup",
      "outputs": [],
      "stateMutability": "nonpayable",
      "type": "function"
    },
    {
      "inputs": [
        {
          "internalType": "uint256",
          "name": "_groupId",
          "type": "uint256"
        }
      ],
      "name": "depositContribution",
      "outputs": [],
      "stateMutability": "nonpayable",
      "type": "function"
    },
    {
      "inputs": [],
      "name": "groupCount",
      "outputs": [
        {
          "internalType": "uint256",
          "name": "",
          "type": "uint256"
        }
      ],
      "stateMutability": "view",
      "type": "function"
    },
    {
      "inputs": [
        {
          "internalType": "uint256",
          "name": "",
          "type": "uint256"
        }
      ],
      "name": "groups",
      "outputs": [
        {
          "internalType": "string",
          "name": "name",
          "type": "string"
        },
        {
          "internalType": "uint256",
          "name": "contributionAmount",
          "type": "uint256"
        },
        {
          "internalType": "uint256",
          "name": "maxMembers",
          "type": "uint256"
        },
        {
          "internalType": "uint256",
          "name": "cycleDuration",
          "type": "uint256"
        },
        {
          "internalType": "uint256",
          "name": "auctionDuration",
          "type": "uint256"
        },
        {
          "internalType": "uint256",
          "name": "minDefaultDiscount",
          "type": "uint256"
        },
        {
          "internalType": "uint256",
          "name": "currentCycle",
          "type": "uint256"
        },
        {
          "internalType": "uint256",
          "name": "cycleStartTime",
          "type": "uint256"
        },
        {
          "internalType": "uint256",
          "name": "totalEscrow",
          "type": "uint256"
        },
        {
          "internalType": "address",
          "name": "creator",
          "type": "address"
        },
        {
          "internalType": "address",
          "name": "highestBidder",
          "type": "address"
        },
        {
          "internalType": "uint256",
          "name": "highestDiscount",
          "type": "uint256"
        },
        {
          "internalType": "bool",
          "name": "auctionSettled",
          "type": "bool"
        },
        {
          "internalType": "bool",
          "name": "isActive",
          "type": "bool"
        }
      ],
      "stateMutability": "view",
      "type": "function"
    },
    {
      "inputs": [
        {
          "internalType": "uint256",
          "name": "_groupId",
          "type": "uint256"
        },
        {
          "internalType": "address",
          "name": "_user",
          "type": "address"
        }
      ],
      "name": "isMemberOf",
      "outputs": [
        {
          "internalType": "bool",
          "name": "",
          "type": "bool"
        }
      ],
      "stateMutability": "view",
      "type": "function"
    },
    {
      "inputs": [
        {
          "internalType": "uint256",
          "name": "_groupId",
          "type": "uint256"
        }
      ],
      "name": "joinGroup",
      "outputs": [],
      "stateMutability": "nonpayable",
      "type": "function"
    },
    {
      "inputs": [],
      "name": "owner",
      "outputs": [
        {
          "internalType": "address",
          "name": "",
          "type": "address"
        }
      ],
      "stateMutability": "view",
      "type": "function"
    },
    {
      "inputs": [
        {
          "internalType": "uint256",
          "name": "_groupId",
          "type": "uint256"
        },
        {
          "internalType": "uint256",
          "name": "_discountAmount",
          "type": "uint256"
        }
      ],
      "name": "placeBid",
      "outputs": [],
      "stateMutability": "nonpayable",
      "type": "function"
    },
    {
      "inputs": [],
      "name": "platformFeeBps",
      "outputs": [
        {
          "internalType": "uint256",
          "name": "",
          "type": "uint256"
        }
      ],
      "stateMutability": "view",
      "type": "function"
    },
    {
      "inputs": [],
      "name": "renounceOwnership",
      "outputs": [],
      "stateMutability": "nonpayable",
      "type": "function"
    },
    {
      "inputs": [
        {
          "internalType": "uint256",
          "name": "_newFeeBps",
          "type": "uint256"
        }
      ],
      "name": "setPlatformFee",
      "outputs": [],
      "stateMutability": "nonpayable",
      "type": "function"
    },
    {
      "inputs": [
        {
          "internalType": "uint256",
          "name": "_groupId",
          "type": "uint256"
        }
      ],
      "name": "settleAuction",
      "outputs": [],
      "stateMutability": "nonpayable",
      "type": "function"
    },
    {
      "inputs": [
        {
          "internalType": "address",
          "name": "newOwner",
          "type": "address"
        }
      ],
      "name": "transferOwnership",
      "outputs": [],
      "stateMutability": "nonpayable",
      "type": "function"
    },
    {
      "inputs": [],
      "name": "usdcToken",
      "outputs": [
        {
          "internalType": "contract IERC20",
          "name": "",
          "type": "address"
        }
      ],
      "stateMutability": "view",
      "type": "function"
    },
    {
      "inputs": [
        {
          "internalType": "address",
          "name": "",
          "type": "address"
        }
      ],
      "name": "userBalance",
      "outputs": [
        {
          "internalType": "uint256",
          "name": "",
          "type": "uint256"
        }
      ],
      "stateMutability": "view",
      "type": "function"
    },
    {
      "inputs": [],
      "name": "withdrawDividends",
      "outputs": [],
      "stateMutability": "nonpayable",
      "type": "function"
    }
  ],
  "bytecode": "0x60a0346100e657601f6115dc38819003918201601f19168301916001600160401b038311848410176100eb578084926020946040528339810103126100e657516001600160a01b0390818116908190036100e65733156100cd576000543360018060a01b0319821617600055604051923391167f8be0079c531659141344cd1fd0a4f28419497f9722a3daafe3b4186f6b6457e0600080a36001805560646002556080526114da908161010282396080518181816107ff01528181610c950152818161101e015261119a0152f35b604051631e4fbdf760e01b815260006004820152602490fd5b600080fd5b634e487b7160e01b600052604160045260246000fdfe608080604052600436101561001357600080fd5b60003560e01c9081630103c92b146111c95750806311eac8551461118457806312e8e2c31461112657806322dcd13e146111085780632e92abdd14610faf5780632e99361114610b9d57806357c90de5146109e5578063715018a61461098c578063788df6b714610937578063830125ba1461076e5780638da5cb5b146107455780638f23b3261461072757806396324bd4146105b4578063e1a4521814610597578063e8b27a5314610242578063eed02e4b146101685763f2fde38b146100da57600080fd5b34610163576020366003190112610163576100f36111ff565b6100fb6112b1565b6001600160a01b0390811690811561014a57600054826001600160601b0360a01b821617600055167f8be0079c531659141344cd1fd0a4f28419497f9722a3daafe3b4186f6b6457e0600080a3005b604051631e4fbdf760e01b815260006004820152602490fd5b600080fd5b34610163576020806003193601126101635761018261136d565b60043560005260048152604060002090600a82019182546002820154111561021757600b01913360005282825260ff604060002054166101e5576101c790339061132d565b33600052526040600020600160ff1982541617905560018055600080f35b60405162461bcd60e51b815260048101839052600a60248201526920b63932b0b23c9034b760b11b6044820152606490fd5b60405162461bcd60e51b81526004808201849052602482015263119d5b1b60e21b6044820152606490fd5b346101635760c03660031901126101635767ffffffffffffffff6004358181116101635736602382011215610163578060040135908282116105815760405191601f1990610298601f820183166020018561124f565b8084526024923684838301011161016357816000928560209301838801378501015281356064356084359160a435936102cf61136d565b60026044351061054d5782841015610516576102ed604435836112dd565b8510156104df576102ff6003546112f0565b80600355600052600460205260406000209587519889116104cb57506103258654611215565b601f8111610483575b50602090601f891160011461041e57509680600b9798600091610413575b508160011b916000199060031b1c19161785555b600185015560443560028501556003840155600483015560058201554260078201556010810161010061ff001982541617905560098101336001600160601b0360a01b8254161790556103b633600a830161132d565b33600052016020526040600020600160ff198254161790557f54de87d9be1b1f358f1f48a16c248c483d4991bc43d54bf3962b247eae8a47a061040a60035492604051918291602083526020830190611271565b0390a260018055005b90508801518961034c565b8816908660005260206000209160005b81811061046b5750918991600b999a60019410610452575b5050811b018555610360565b8a015160001960f88460031b161c191690558980610446565b9192602060018192868d01518155019401920161042e565b866000526020600020601f8a0160051c81019160208b106104c1575b601f0160051c01905b8181106104b5575061032e565b600081556001016104a8565b909150819061049f565b634e487b7160e01b60009081526041600452fd5b60405162461bcd60e51b8152602060048201526010818801526f125b9d985b1a5908191a5cd8dbdd5b9d60821b6044820152606490fd5b60405162461bcd60e51b8152602060048201526010818801526f41756374696f6e20746f6f206c6f6e6760801b6044820152606490fd5b60405162461bcd60e51b815260206004820152600d818801526c4d696e2032206d656d6265727360981b6044820152606490fd5b634e487b7160e01b600052604160045260246000fd5b346101635760003660031901126101635760206040516127108152f35b346101635760208060031936011261016357600435600052600481526040600020906040516000818454916105e883611215565b80835260019386858216918260001461070d5750506001146106d0575b5003610611908361124f565b830154926002810154906003810154600482015460058301546006840154600785015490600886015492600160a01b60019003948560098901541695600e8901541696600f8901549860100154996040519d8e9d8e9d8e6101c0908181520161067991611271565b9d015260408d015260608c015260808b015260a08a015260c089015260e088015261010087015261012086015261014085015261016084015260ff8116151561018084015260081c60ff1615156101a08301520390f35b859150866000528160002090846000925b8284106106f45750505082010186610605565b80548489018601528795508894909301928691016106e1565b9150925060ff191682840152151560051b82010186610605565b34610163576000366003190112610163576020600354604051908152f35b34610163576000366003190112610163576000546040516001600160a01b039091168152602090f35b34610163576020806003193601126101635760043561078b61136d565b806000526004825260406000209133600052600b830181526107b460ff60406000205416611390565b600d83013360005280825260ff60406000205416610903576001840180546040516323b872dd60e01b81523360048201523060248201526044810191909152909190838160648160007f00000000000000000000000000000000000000000000000000000000000000006001600160a01b03165af19081156108f7576000916108ca575b5015610899577f3b595e267f7dc5dd7960dca6ca4497e7d37cf5594fdb7fb48a92c9988d9bf32692916008913360005283526040600020600160ff198254161790555494016108888582546113e1565b90556040519384523393a360018055005b60405162461bcd60e51b81526004810184905260096024820152681554d110c819985a5b60ba1b6044820152606490fd5b6108ea9150843d86116108f0575b6108e2818361124f565b8101906113c9565b86610838565b503d6108d8565b6040513d6000823e3d90fd5b60405162461bcd60e51b815260048101839052600c60248201526b105b1c9958591e481c185a5960a21b6044820152606490fd5b34610163576040366003190112610163576024356001600160a01b03811690819003610163576004356000526004602052600b60406000200190600052602052602060ff604060002054166040519015158152f35b34610163576000366003190112610163576109a56112b1565b600080546001600160a01b0319811682556001600160a01b03167f8be0079c531659141344cd1fd0a4f28419497f9722a3daafe3b4186f6b6457e08280a3005b34610163576040366003190112610163576004356024359080600052602060048152604060002033600052600b81018252610a2760ff60406000205416611390565b33600052600c8101825260ff60406000205416610b5f57610a5160078201546004830154906113e1565b421015610b2957600f81018054851115610af05760058201548510610ab6577f0e54eff26401bf69b81b26f60bd85ef47f5d85275c1d268d84f68d6897431c47929185600e925501336001600160601b0360a01b8254161790556040519384523393a3005b60405162461bcd60e51b815260048101849052601260248201527110995b1bddc81b5a5b88191a5cd8dbdd5b9d60721b6044820152606490fd5b60405162461bcd60e51b8152600481018490526011602482015270125b98dc99585cd948191a5cd8dbdd5b9d607a1b6044820152606490fd5b60405162461bcd60e51b815260048101839052600e60248201526d105d58dd1a5bdb8818db1bdcd95960921b6044820152606490fd5b60405162461bcd60e51b8152600481018390526016602482015275416c726561647920776f6e2070726576696f75736c7960501b6044820152606490fd5b34610163576020806003193601126101635760043590610bbb61136d565b8160005260048152604060002091610bdc60078401546004850154906113e1565b4210610f7857601083019260ff845416610f495760088101546001938483015495600a840192835490610c0f828a6112dd565b11610f0c57600e8501546001600160a01b039190821680610ef95750610c66610c37886113fb565b91610c616005890154915b610c5b612710610c54600254866112dd565b04846113ee565b9c6112dd565b6113ee565b60405163a9059cbb60e01b81526001600160a01b038316600482015260248101829052909990858160448160007f000000000000000000000000000000000000000000000000000000000000000089165af19081156108f757600091610edc575b5015610ea95785546000198101908111610e93578015610e7d5789919493940495816000905b610e03575b50505082600691169586600052600c8101855260406000209260ff19938a85825416179055898482541617905501610d2a81546112f0565b9055856000526004835286604060002092426007850155600e84016001600160601b0360a01b81541690556000600f85015560006008850155601084018381541690556000600d600a86019501925b610dbb575b5088887f81e5a25d0dd0f1e611e25aae7ef5cf1848ef35f6e90c7c008cdc30b1d07c74e160608a8a8f8b6040519384528301526040820152a28055005b8454811015610dfe5790610df58282610dd78d979695896112ff565b90549060031b1c1660005283885260406000208581541690556112f0565b90919293610d79565b610d7e565b858296959654821015610e745790610e3b91610e1f82856112ff565b90549082600392818a1692841b1c1603610e44575b50506112f0565b82959495610ced565b610e4e83866112ff565b9054911b1c16600052600588526040600020610e6b8a82546113e1565b9055858e610e34565b50949394610cf2565b634e487b7160e01b600052601260045260246000fd5b634e487b7160e01b600052601160045260246000fd5b60405162461bcd60e51b815260048101869052600b60248201526a14185e5bdd5d0819985a5b60aa1b6044820152606490fd5b610ef39150863d88116108f0576108e2818361124f565b8b610cc7565b610c669091610c61600f89015491610c42565b60405162461bcd60e51b8152600481018490526015602482015274436f6e747269627574696f6e732070656e64696e6760581b6044820152606490fd5b60405162461bcd60e51b815260048101849052600760248201526614d95d1d1b195960ca1b6044820152606490fd5b60405162461bcd60e51b815260048101839052600f60248201526e41756374696f6e206f6e676f696e6760881b6044820152606490fd5b3461016357600036600319011261016357610fc861136d565b336000526020600581526040600020549081156110d7573360008181526005835260408082208290555163a9059cbb60e01b81526004810192909252602482018490528290829060449082906001600160a01b037f0000000000000000000000000000000000000000000000000000000000000000165af19081156108f7576000916110ba575b5015611086577fee503bee2bb6a87e57bc57db795f98137327401a0e7b7ce42e37926cc1a9ca4d906040519283523392a260018055005b6064906040519062461bcd60e51b82526004820152600d60248201526c15da5d1a191c985dc819985a5b609a1b6044820152fd5b6110d19150823d84116108f0576108e2818361124f565b8361104f565b6064906040519062461bcd60e51b82526004820152600a6024820152694e6f2062616c616e636560b01b6044820152fd5b34610163576000366003190112610163576020600254604051908152f35b34610163576020366003190112610163576004356111426112b1565b6103e8811161115057600255005b60405162461bcd60e51b815260206004820152600c60248201526b08ccaca40e8dede40d0d2ced60a31b6044820152606490fd5b34610163576000366003190112610163576040517f00000000000000000000000000000000000000000000000000000000000000006001600160a01b03168152602090f35b34610163576020366003190112610163576020906001600160a01b036111ed6111ff565b16600052600582526040600020548152f35b600435906001600160a01b038216820361016357565b90600182811c92168015611245575b602083101461122f57565b634e487b7160e01b600052602260045260246000fd5b91607f1691611224565b90601f8019910116810190811067ffffffffffffffff82111761058157604052565b919082519283825260005b84811061129d575050826000602080949584010152601f8019910116010190565b60208183018101518483018201520161127c565b6000546001600160a01b031633036112c557565b60405163118cdaa760e01b8152336004820152602490fd5b81810292918115918404141715610e9357565b6000198114610e935760010190565b80548210156113175760005260206000200190600090565b634e487b7160e01b600052603260045260246000fd5b8054680100000000000000008110156105815761134f916001820181556112ff565b819291549060031b9160018060a01b03809116831b921b1916179055565b60026001541461137e576002600155565b604051633ee5aeb560e01b8152600490fd5b1561139757565b60405162461bcd60e51b815260206004820152600a6024820152692737ba1036b2b6b132b960b11b6044820152606490fd5b90816020910312610163575180151581036101635790565b91908201809211610e9357565b91908203918211610e9357565b600090815260206004815260408083208391600a820192600c84549301905b83811061144e575050501561143a5782529020546001600160a01b031690565b634e487b7160e01b83526032600452602483fd5b61145881866112ff565b60018060a01b03809254600392831b1c16895283885260ff858a2054161561148a575050611485906112f0565b61141a565b965096509250505061149b916112ff565b9054911b1c169056fea2646970667358221220d76c78068a1fdec9833a1d8d5f7bafc93e47a04ed3a21c3b0d42524f7132bb6d64736f6c63430008140033",
  "linkReferences": {},
  "deployedLinkReferences": {}
}