{
  "_format": "hh-sol-artifact-1",
  "contractName": "ROSCA",
  "sourceName": "contracts/ROSCA.sol",
  "abi": [
    {
      "inputs": [
        {
          "internalType": "address",
          "name": "_usdcAddress",
          "type": "address"
        }
      ],
      "stateMutability": "nonpayable",
      "type": "constructor"
    },
    {
      "inputs": [
        {
          "internalType": "address",
          "name": "owner",
          "type": "address"
        }
      ],
      "name": "OwnableInvalidOwner",
      "type": "error"
    },
    {
      "inputs": [
        {
          "internalType": "address",
          "name": "account",
          "type": "address"
        }
      ],
      "name": "OwnableUnauthorizedAccount",
      "type": "error"
    },
    {
      "inputs": [],
      "name": "ReentrancyGuardReentrantCall",
      "type": "error"
    },
    {
      "anonymous": false,
      "inputs": [
        {
          "indexed": true,
          "internalType": "uint256",
          "name": "groupId",
          "type": "uint256"
        },
        {
          "indexed": false,
          "internalType": "address",
          "name": "winner",
          "type": "address"
        },
        {
          "indexed": false,
          "internalType": "uint256",
          "name": "payout",
          "type": "uint256"
        },
        {
          "indexed": false,
          "internalType": "uint256",
          "name": "dividendPerMember",
          "type": "uint256"
        }
      ],
      "name": "AuctionWinnerSelected",
      "type": "event"
    },
    {
      "anonymous": false,
      "inputs": [
        {
          "indexed": true,
          "internalType": "uint256",
          "name": "groupId",
          "type": "uint256"
        },
        {
          "indexed": true,
          "internalType": "address",
          "name": "bidder",
          "type": "address"
        },
        {
          "indexed": false,
          "internalType": "uint256",
          "name": "discount",
          "type": "uint256"
        }
      ],
      "name": "BidPlaced",
      "type": "event"
    },
    {
      "anonymous": false,
      "inputs": [
        {
          "indexed": true,
          "internalType": "uint256",
          "name": "groupId",
          "type": "uint256"
        },
        {
          "indexed": true,
          "internalType": "address",
          "name": "member",
          "type": "address"
        },
        {
          "indexed": false,
          "internalType": "uint256",
          "name": "amount",
          "type": "uint256"
        }
      ],
      "name": "ContributionDeposited",
      "type": "event"
    },
    {
      "anonymous": false,
      "inputs": [
        {
          "indexed": true,
          "internalType": "address",
          "name": "member",
          "type": "address"
        },
        {
          "indexed": false,
          "internalType": "uint256",
          "name": "amount",
          "type": "uint256"
        }
      ],
      "name": "DividendWithdrawn",
      "type": "event"
    },
    {
      "anonymous": false,
      "inputs": [
        {
          "indexed": true,
          "internalType": "uint256",
          "name": "groupId",
          "type": "uint256"
        },
        {
          "indexed": false,
          "internalType": "string",
          "name": "name",
          "type": "string"
        }
      ],
      "name": "GroupStarted",
      "type": "event"
    },
    {
      "anonymous": false,
      "inputs": [
        {
          "indexed": true,
          "internalType": "address",
          "name": "previousOwner",
          "type": "address"
        },
        {
          "indexed": true,
          "internalType": "address",
          "name": "newOwner",
          "type": "address"
        }
      ],
      "name": "OwnershipTransferred",
      "type": "event"
    },
    {
      "inputs": [],
      "name": "BPS_DENOMINATOR",
      "outputs": [
        {
          "internalType": "uint256",
          "name": "",
          "type": "uint256"
        }
      ],
      "stateMutability": "view",
      "type": "function"
    },
    {
      "inputs": [
        {
          "internalType": "string",
          "name": "_name",
          "type": "string"
        },
        {
          "internalType": "uint256",
          "name": "_contributionAmount",
          "type": "uint256"
        },
        {
          "internalType": "uint256",
          "name": "_maxMembers",
          "type": "uint256"
        },
        {
          "internalType": "uint256",
          "name": "_cycleDuration",
          "type": "uint256"
        },
        {
          "internalType": "uint256",
          "name": "_auctionDuration",
          "type": "uint256"
        },
        {
          "internalType": "uint256",
          "name": "_minDefaultDiscount",
          "type": "uint256"
        }
      ],
      "name": "createGroup",
      "outputs": [],
      "stateMutability": "nonpayable",
      "type": "function"
    },
    {
      "inputs": [
        {
          "internalType": "uint256",
          "name": "_groupId",
          "type": "uint256"
        }
      ],
      "name": "depositContribution",
      "outputs": [],
      "stateMutability": "nonpayable",
      "type": "function"
    },
    {
      "inputs": [],
      "name": "groupCount",
      "outputs": [
        {
          "internalType": "uint256",
          "name": "",
          "type": "uint256"
        }
      ],
      "stateMutability": "view",
      "type": "function"
    },
    {
      "inputs": [
        {
          "internalType": "uint256",
          "name": "",
          "type": "uint256"
        }
      ],
      "name": "groups",
      "outputs": [
        {
          "internalType": "string",
          "name": "name",
          "type": "string"
        },
        {
          "internalType": "uint256",
          "name": "contributionAmount",
          "type": "uint256"
        },
        {
          "internalType": "uint256",
          "name": "maxMembers",
          "type": "uint256"
        },
        {
          "internalType": "uint256",
          "name": "cycleDuration",
          "type": "uint256"
        },
        {
          "internalType": "uint256",
          "name": "auctionDuration",
          "type": "uint256"
        },
        {
          "internalType": "uint256",
          "name": "minDefaultDiscount",
          "type": "uint256"
        },
        {
          "internalType": "uint256",
          "name": "currentCycle",
          "type": "uint256"
        },
        {
          "internalType": "uint256",
          "name": "cycleStartTime",
          "type": "uint256"
        },
        {
          "internalType": "uint256",
          "name": "totalEscrow",
          "type": "uint256"
        },
        {
          "internalType": "address",
          "name": "highestBidder",
          "type": "address"
        },
        {
          "internalType": "uint256",
          "name": "highestDiscount",
          "type": "uint256"
        },
        {
          "internalType": "bool",
          "name": "auctionSettled",
          "type": "bool"
        },
        {
          "internalType": "bool",
          "name": "isActive",
          "type": "bool"
        }
      ],
      "stateMutability": "view",
      "type": "function"
    },
    {
      "inputs": [
        {
          "internalType": "uint256",
          "name": "_groupId",
          "type": "uint256"
        }
      ],
      "name": "joinGroup",
      "outputs": [],
      "stateMutability": "nonpayable",
      "type": "function"
    },
    {
      "inputs": [],
      "name": "owner",
      "outputs": [
        {
          "internalType": "address",
          "name": "",
          "type": "address"
        }
      ],
      "stateMutability": "view",
      "type": "function"
    },
    {
      "inputs": [
        {
          "internalType": "uint256",
          "name": "_groupId",
          "type": "uint256"
        },
        {
          "internalType": "uint256",
          "name": "_discountAmount",
          "type": "uint256"
        }
      ],
      "name": "placeBid",
      "outputs": [],
      "stateMutability": "nonpayable",
      "type": "function"
    },
    {
      "inputs": [],
      "name": "platformFeeBps",
      "outputs": [
        {
          "internalType": "uint256",
          "name": "",
          "type": "uint256"
        }
      ],
      "stateMutability": "view",
      "type": "function"
    },
    {
      "inputs": [],
      "name": "renounceOwnership",
      "outputs": [],
      "stateMutability": "nonpayable",
      "type": "function"
    },
    {
      "inputs": [
        {
          "internalType": "uint256",
          "name": "_newFeeBps",
          "type": "uint256"
        }
      ],
      "name": "setPlatformFee",
      "outputs": [],
      "stateMutability": "nonpayable",
      "type": "function"
    },
    {
      "inputs": [
        {
          "internalType": "uint256",
          "name": "_groupId",
          "type": "uint256"
        }
      ],
      "name": "settleAuction",
      "outputs": [],
      "stateMutability": "nonpayable",
      "type": "function"
    },
    {
      "inputs": [
        {
          "internalType": "address",
          "name": "newOwner",
          "type": "address"
        }
      ],
      "name": "transferOwnership",
      "outputs": [],
      "stateMutability": "nonpayable",
      "type": "function"
    },
    {
      "inputs": [],
      "name": "usdcToken",
      "outputs": [
        {
          "internalType": "contract IERC20",
          "name": "",
          "type": "address"
        }
      ],
      "stateMutability": "view",
      "type": "function"
    },
    {
      "inputs": [
        {
          "internalType": "address",
          "name": "",
          "type": "address"
        }
      ],
      "name": "userBalance",
      "outputs": [
        {
          "internalType": "uint256",
          "name": "",
          "type": "uint256"
        }
      ],
      "stateMutability": "view",
      "type": "function"
    },
    {
      "inputs": [],
      "name": "withdrawDividends",
      "outputs": [],
      "stateMutability": "nonpayable",
      "type": "function"
    }
  ],
  "bytecode": "0x60a0346100e657601f61150a38819003918201601f19168301916001600160401b038311848410176100eb578084926020946040528339810103126100e657516001600160a01b0390818116908190036100e65733156100cd576000543360018060a01b0319821617600055604051923391167f8be0079c531659141344cd1fd0a4f28419497f9722a3daafe3b4186f6b6457e0600080a3600180556064600255608052611408908161010282396080518181816107d301528181610c1401528181610f9d01526111190152f35b604051631e4fbdf760e01b815260006004820152602490fd5b600080fd5b634e487b7160e01b600052604160045260246000fdfe608080604052600436101561001357600080fd5b60003560e01c9081630103c92b146111485750806311eac8551461110357806312e8e2c3146110a557806322dcd13e146110875780632e92abdd14610f2e5780632e99361114610b1c57806357c90de514610964578063715018a61461090b578063830125ba146107425780638da5cb5b146107195780638f23b326146106fb57806396324bd41461059c578063e1a452181461057f578063e8b27a531461027e578063eed02e4b1461015f5763f2fde38b146100cf57600080fd5b3461015a57602036600319011261015a576004356001600160a01b038181169182900361015a576100fe61121f565b811561014157600054826001600160601b0360a01b821617600055167f8be0079c531659141344cd1fd0a4f28419497f9722a3daafe3b4186f6b6457e0600080a3005b604051631e4fbdf760e01b815260006004820152602490fd5b600080fd5b3461015a5760208060031936011261015a5761017961126d565b6004356000526004815260406000209060098201805492600281015484101561025357600a01923360005283835260ff60406000205416610221576801000000000000000081101561020b576101d491600182018155611290565b81549060031b9033821b9160018060a01b03901b191617905533600052526040600020600160ff1982541617905560018055600080f35b634e487b7160e01b600052604160045260246000fd5b60405162461bcd60e51b815260048101849052600a60248201526920b63932b0b23c9034b760b11b6044820152606490fd5b60405162461bcd60e51b81526004808201859052602482015263119d5b1b60e21b6044820152606490fd5b3461015a5760c036600319011261015a5767ffffffffffffffff60043581811161015a573660238201121561015a5780600401359082821161020b5760405191601f19906102d4601f82018316602001856111bd565b8084526024923684838301011161015a57816000928560209301838801378501015281356064356084359160a4359361030b61126d565b60026044351061054b5782841015610514576103296044358361124b565b8510156104dd5761033b60035461125e565b80600355600052600460205260406000209587519889116104c957506103618654611183565b601f8111610481575b50602090601f891160011461041c57509680600f9798600091610411575b508160011b916000199060031b1c19161785555b600185015560443560028501556003840155600483015560058201554260078201550161010061ff00198254161790557f54de87d9be1b1f358f1f48a16c248c483d4991bc43d54bf3962b247eae8a47a0610408600354926040519182916020835260208301906111df565b0390a260018055005b905088015189610388565b8816908660005260206000209160005b8181106104695750918991600f999a60019410610450575b5050811b01855561039c565b8a015160001960f88460031b161c191690558980610444565b9192602060018192868d01518155019401920161042c565b866000526020600020601f8a0160051c81019160208b106104bf575b601f0160051c01905b8181106104b3575061036a565b600081556001016104a6565b909150819061049d565b634e487b7160e01b60009081526041600452fd5b60405162461bcd60e51b8152602060048201526010818801526f125b9d985b1a5908191a5cd8dbdd5b9d60821b6044820152606490fd5b60405162461bcd60e51b8152602060048201526010818801526f41756374696f6e20746f6f206c6f6e6760801b6044820152606490fd5b60405162461bcd60e51b815260206004820152600d818801526c4d696e2032206d656d6265727360981b6044820152606490fd5b3461015a57600036600319011261015a5760206040516127108152f35b3461015a5760208060031936011261015a5760043560005260048152604060002060405160009180546105ce81611183565b8084526001918683821691826000146106dd5750506001146106a7575b509060ff916105ff846106599603856111bd565b81015490600281015460038201546004830154600584015460068501549060078601549260088701549460018060a01b03600d8901541696600f600e8a0154990154996040519e8f9e8f9e8f6101a09081815201906111df565b9d015260408d015260608c015260808b015260a08a015260c089015260e0880152610100870152610120860152610140850152818116151561016085015260081c1615156101808301520390f35b93508160005284806000206000905b8682106106ca5750840101935060ff6105eb565b80548683018401529082019083016106b6565b60ff19168682015291151560051b8501909101945060ff90506105eb565b3461015a57600036600319011261015a576020600354604051908152f35b3461015a57600036600319011261015a576000546040516001600160a01b039091168152602090f35b3461015a5760208060031936011261015a5760043561075f61126d565b806000526004825260406000209133600052600a8301815261078860ff604060002054166112be565b600c83013360005280825260ff604060002054166108d7576001840180546040516323b872dd60e01b81523360048201523060248201526044810191909152909190838160648160007f00000000000000000000000000000000000000000000000000000000000000006001600160a01b03165af19081156108cb5760009161089e575b501561086d577f3b595e267f7dc5dd7960dca6ca4497e7d37cf5594fdb7fb48a92c9988d9bf32692916008913360005283526040600020600160ff1982541617905554940161085c85825461130f565b90556040519384523393a360018055005b60405162461bcd60e51b81526004810184905260096024820152681554d110c819985a5b60ba1b6044820152606490fd5b6108be9150843d86116108c4575b6108b681836111bd565b8101906112f7565b8661080c565b503d6108ac565b6040513d6000823e3d90fd5b60405162461bcd60e51b815260048101839052600c60248201526b105b1c9958591e481c185a5960a21b6044820152606490fd5b3461015a57600036600319011261015a5761092461121f565b600080546001600160a01b0319811682556001600160a01b03167f8be0079c531659141344cd1fd0a4f28419497f9722a3daafe3b4186f6b6457e08280a3005b3461015a57604036600319011261015a576004356024359080600052602060048152604060002033600052600a810182526109a660ff604060002054166112be565b33600052600b8101825260ff60406000205416610ade576109d0600782015460048301549061130f565b421015610aa857600e81018054851115610a6f5760058201548510610a35577f0e54eff26401bf69b81b26f60bd85ef47f5d85275c1d268d84f68d6897431c47929185600d925501336001600160601b0360a01b8254161790556040519384523393a3005b60405162461bcd60e51b815260048101849052601260248201527110995b1bddc81b5a5b88191a5cd8dbdd5b9d60721b6044820152606490fd5b60405162461bcd60e51b8152600481018490526011602482015270125b98dc99585cd948191a5cd8dbdd5b9d607a1b6044820152606490fd5b60405162461bcd60e51b815260048101839052600e60248201526d105d58dd1a5bdb8818db1bdcd95960921b6044820152606490fd5b60405162461bcd60e51b8152600481018390526016602482015275416c726561647920776f6e2070726576696f75736c7960501b6044820152606490fd5b3461015a5760208060031936011261015a5760043590610b3a61126d565b8160005260048152604060002091610b5b600784015460048501549061130f565b4210610ef757600f83019260ff845416610ec857600881015460019384830154956009840192835490610b8e828a61124b565b11610e8b57600d8501546001600160a01b039190821680610e785750610be5610bb688611329565b91610be06005890154915b610bda612710610bd36002548661124b565b048461131c565b9c61124b565b61131c565b60405163a9059cbb60e01b81526001600160a01b038316600482015260248101829052909990858160448160007f000000000000000000000000000000000000000000000000000000000000000089165af19081156108cb57600091610e5b575b5015610e285785546000198101908111610e12578015610dfc5789919493940495816000905b610d82575b50505082600691169586600052600b8101855260406000209260ff19938a85825416179055898482541617905501610ca9815461125e565b9055856000526004835286604060002092426007850155600d84016001600160601b0360a01b81541690556000600e85015560006008850155600f84018381541690556000600c600986019501925b610d3a575b5088887f81e5a25d0dd0f1e611e25aae7ef5cf1848ef35f6e90c7c008cdc30b1d07c74e160608a8a8f8b6040519384528301526040820152a28055005b8454811015610d7d5790610d748282610d568d97969589611290565b90549060031b1c16600052838852604060002085815416905561125e565b90919293610cf8565b610cfd565b858296959654821015610df35790610dba91610d9e8285611290565b90549082600392818a1692841b1c1603610dc3575b505061125e565b82959495610c6c565b610dcd8386611290565b9054911b1c16600052600588526040600020610dea8a825461130f565b9055858e610db3565b50949394610c71565b634e487b7160e01b600052601260045260246000fd5b634e487b7160e01b600052601160045260246000fd5b60405162461bcd60e51b815260048101869052600b60248201526a14185e5bdd5d0819985a5b60aa1b6044820152606490fd5b610e729150863d88116108c4576108b681836111bd565b8b610c46565b610be59091610be0600e89015491610bc1565b60405162461bcd60e51b8152600481018490526015602482015274436f6e747269627574696f6e732070656e64696e6760581b6044820152606490fd5b60405162461bcd60e51b815260048101849052600760248201526614d95d1d1b195960ca1b6044820152606490fd5b60405162461bcd60e51b815260048101839052600f60248201526e41756374696f6e206f6e676f696e6760881b6044820152606490fd5b3461015a57600036600319011261015a57610f4761126d565b33600052602060058152604060002054908115611056573360008181526005835260408082208290555163a9059cbb60e01b81526004810192909252602482018490528290829060449082906001600160a01b037f0000000000000000000000000000000000000000000000000000000000000000165af19081156108cb57600091611039575b5015611005577fee503bee2bb6a87e57bc57db795f98137327401a0e7b7ce42e37926cc1a9ca4d906040519283523392a260018055005b6064906040519062461bcd60e51b82526004820152600d60248201526c15da5d1a191c985dc819985a5b609a1b6044820152fd5b6110509150823d84116108c4576108b681836111bd565b83610fce565b6064906040519062461bcd60e51b82526004820152600a6024820152694e6f2062616c616e636560b01b6044820152fd5b3461015a57600036600319011261015a576020600254604051908152f35b3461015a57602036600319011261015a576004356110c161121f565b6103e881116110cf57600255005b60405162461bcd60e51b815260206004820152600c60248201526b08ccaca40e8dede40d0d2ced60a31b6044820152606490fd5b3461015a57600036600319011261015a576040517f00000000000000000000000000000000000000000000000000000000000000006001600160a01b03168152602090f35b3461015a57602036600319011261015a576004356001600160a01b038116919082900361015a57602091600052600582526040600020548152f35b90600182811c921680156111b3575b602083101461119d57565b634e487b7160e01b600052602260045260246000fd5b91607f1691611192565b90601f8019910116810190811067ffffffffffffffff82111761020b57604052565b919082519283825260005b84811061120b575050826000602080949584010152601f8019910116010190565b6020818301810151848301820152016111ea565b6000546001600160a01b0316330361123357565b60405163118cdaa760e01b8152336004820152602490fd5b81810292918115918404141715610e1257565b6000198114610e125760010190565b60026001541461127e576002600155565b604051633ee5aeb560e01b8152600490fd5b80548210156112a85760005260206000200190600090565b634e487b7160e01b600052603260045260246000fd5b156112c557565b60405162461bcd60e51b815260206004820152600a6024820152692737ba1036b2b6b132b960b11b6044820152606490fd5b9081602091031261015a5751801515810361015a5790565b91908201809211610e1257565b91908203918211610e1257565b6000908152602060048152604080832083916009820192600b84549301905b83811061137c57505050156113685782529020546001600160a01b031690565b634e487b7160e01b83526032600452602483fd5b6113868186611290565b60018060a01b03809254600392831b1c16895283885260ff858a205416156113b85750506113b39061125e565b611348565b96509650925050506113c991611290565b9054911b1c169056fea2646970667358221220381e101c4096e862067392e1ca223179c5a0ff27911e2cedec13187e8655a59f64736f6c63430008140033",
  "linkReferences": {},
  "deployedLinkReferences": {}
}