{"contracts/ROSCA.sol":{"ROSCA":{"abi":[{"inputs":[{"internalType":"address","name":"_usdcAddress","type":"address"}],"stateMutability":"nonpayable","type":"constructor"},{"inputs":[{"internalType":"address","name":"owner","type":"address"}],"name":"OwnableInvalidOwner","type":"error"},{"inputs":[{"internalType":"address","name":"account","type":"address"}],"name":"OwnableUnauthorizedAccount","type":"error"},{"inputs":[],"name":"ReentrancyGuardReentrantCall","type":"error"},{"anonymous":false,"inputs":[{"indexed":true,"internalType":"uint256","name":"groupId","type":"uint256"},{"indexed":false,"internalType":"address","name":"winner","type":"address"},{"indexed":false,"internalType":"uint256","name":"payout","type":"uint256"},{"indexed":false,"internalType":"uint256","name":"dividendPerMember","type":"uint256"}],"name":"AuctionWinnerSelected","type":"event"},{"anonymous":false,"inputs":[{"indexed":true,"internalType":"uint256","name":"groupId","type":"uint256"},{"indexed":true,"internalType":"address","name":"bidder","type":"address"},{"indexed":false,"internalType":"uint256","name":"discount","type":"uint256"}],"name":"BidPlaced","type":"event"},{"anonymous":false,"inputs":[{"indexed":true,"internalType":"uint256","name":"groupId","type":"uint256"},{"indexed":true,"internalType":"address","name":"member","type":"address"},{"indexed":false,"internalType":"uint256","name":"amount","type":"uint256"}],"name":"ContributionDeposited","type":"event"},{"anonymous":false,"inputs":[{"indexed":true,"internalType":"address","name":"member","type":"address"},{"indexed":false,"internalType":"uint256","name":"amount","type":"uint256"}],"name":"DividendWithdrawn","type":"event"},{"anonymous":false,"inputs":[{"indexed":true,"internalType":"uint256","name":"groupId","type":"uint256"},{"indexed":false,"internalType":"string","name":"name","type":"string"}],"name":"GroupStarted","type":"event"},{"anonymous":false,"inputs":[{"indexed":true,"internalType":"address","name":"previousOwner","type":"address"},{"indexed":true,"internalType":"address","name":"newOwner","type":"address"}],"name":"OwnershipTransferred","type":"event"},{"inputs":[],"name":"BPS_DENOMINATOR","outputs":[{"internalType":"uint256","name":"","type":"uint256"}],"stateMutability":"view","type":"function"},{"inputs":[{"internalType":"string","name":"_name","type":"string"},{"internalType":"uint256","name":"_contributionAmount","type":"uint256"},{"internalType":"uint256","name":"_maxMembers","type":"uint256"},{"internalType":"uint256","name":"_cycleDuration","type":"uint256"},{"internalType":"uint256","name":"_auctionDuration","type":"uint256"},{"internalType":"uint256","name":"_minDefaultDiscount","type":"uint256"}],"name":"createGroup","outputs":[],"stateMutability":"nonpayable","type":"function"},{"inputs":[{"internalType":"uint256","name":"_groupId","type":"uint256"}],"name":"depositContribution","outputs":[],"stateMutability":"nonpayable","type":"function"},{"inputs":[],"name":"groupCount","outputs":[{"internalType":"uint256","name":"","type":"uint256"}],"stateMutability":"view","type":"function"},{"inputs":[{"internalType":"uint256","name":"","type":"uint256"}],"name":"groups","outputs":[{"internalType":"string","name":"name","type":"string"},{"internalType":"uint256","name":"contributionAmount","type":"uint256"},{"internalType":"uint256","name":"maxMembers","type":"uint256"},{"internalType":"uint256","name":"cycleDuration","type":"uint256"},{"internalType":"uint256","name":"auctionDuration","type":"uint256"},{"internalType":"uint256","name":"minDefaultDiscount","type":"uint256"},{"internalType":"uint256","name":"currentCycle","type":"uint256"},{"internalType":"uint256","name":"cycleStartTime","type":"uint256"},{"internalType":"uint256","name":"totalEscrow","type":"uint256"},{"internalType":"address","name":"highestBidder","type":"address"},{"internalType":"uint256","name":"highestDiscount","type":"uint256"},{"internalType":"bool","name":"auctionSettled","type":"bool"},{"internalType":"bool","name":"isActive","type":"bool"}],"stateMutability":"view","type":"function"},{"inputs":[{"internalType":"uint256","name":"_groupId","type":"uint256"}],"name":"joinGroup","outputs":[],"stateMutability":"nonpayable","type":"function"},{"inputs":[],"name":"owner","outputs":[{"internalType":"address","name":"","type":"address"}],"stateMutability":"view","type":"function"},{"inputs":[{"internalType":"uint256","name":"_groupId","type":"uint256"},{"internalType":"uint256","name":"_discountAmount","type":"uint256"}],"name":"placeBid","outputs":[],"stateMutability":"nonpayable","type":"function"},{"inputs":[],"name":"platformFeeBps","outputs":[{"internalType":"uint256","name":"","type":"uint256"}],"stateMutability":"view","type":"function"},{"inputs":[],"name":"renounceOwnership","outputs":[],"stateMutability":"nonpayable","type":"function"},{"inputs":[{"internalType":"uint256","name":"_newFeeBps","type":"uint256"}],"name":"setPlatformFee","outputs":[],"stateMutability":"nonpayable","type":"function"},{"inputs":[{"internalType":"uint256","name":"_groupId","type":"uint256"}],"name":"settleAuction","outputs":[],"stateMutability":"nonpayable","type":"function"},{"inputs":[{"internalType":"address","name":"newOwner","type":"address"}],"name":"transferOwnership","outputs":[],"stateMutability":"nonpayable","type":"function"},{"inputs":[],"name":"usdcToken","outputs":[{"internalType":"contract IERC20","name":"","type":"address"}],"stateMutability":"view","type":"function"},{"inputs":[{"internalType":"address","name":"","type":"address"}],"name":"userBalance","outputs":[{"internalType":"uint256","name":"","type":"uint256"}],"stateMutability":"view","type":"function"},{"inputs":[],"name":"withdrawDividends","outputs":[],"stateMutability":"nonpayable","type":"function"}],"evm":{"bytecode":{"linkReferences":{},"object":"60a0346100e657601f61150a38819003918201601f19168301916001600160401b038311848410176100eb578084926020946040528339810103126100e657516001600160a01b0390818116908190036100e65733156100cd576000543360018060a01b0319821617600055604051923391167f8be0079c531659141344cd1fd0a4f28419497f9722a3daafe3b4186f6b6457e0600080a3600180556064600255608052611408908161010282396080518181816107d301528181610c1401528181610f9d01526111190152f35b604051631e4fbdf760e01b815260006004820152602490fd5b600080fd5b634e487b7160e01b600052604160045260246000fdfe608080604052600436101561001357600080fd5b60003560e01c9081630103c92b146111485750806311eac8551461110357806312e8e2c3146110a557806322dcd13e146110875780632e92abdd14610f2e5780632e99361114610b1c57806357c90de514610964578063715018a61461090b578063830125ba146107425780638da5cb5b146107195780638f23b326146106fb57806396324bd41461059c578063e1a452181461057f578063e8b27a531461027e578063eed02e4b1461015f5763f2fde38b146100cf57600080fd5b3461015a57602036600319011261015a576004356001600160a01b038181169182900361015a576100fe61121f565b811561014157600054826001600160601b0360a01b821617600055167f8be0079c531659141344cd1fd0a4f28419497f9722a3daafe3b4186f6b6457e0600080a3005b604051631e4fbdf760e01b815260006004820152602490fd5b600080fd5b3461015a5760208060031936011261015a5761017961126d565b6004356000526004815260406000209060098201805492600281015484101561025357600a01923360005283835260ff60406000205416610221576801000000000000000081101561020b576101d491600182018155611290565b81549060031b9033821b9160018060a01b03901b191617905533600052526040600020600160ff1982541617905560018055600080f35b634e487b7160e01b600052604160045260246000fd5b60405162461bcd60e51b815260048101849052600a60248201526920b63932b0b23c9034b760b11b6044820152606490fd5b60405162461bcd60e51b81526004808201859052602482015263119d5b1b60e21b6044820152606490fd5b3461015a5760c036600319011261015a5767ffffffffffffffff60043581811161015a573660238201121561015a5780600401359082821161020b5760405191601f19906102d4601f82018316602001856111bd565b8084526024923684838301011161015a57816000928560209301838801378501015281356064356084359160a4359361030b61126d565b60026044351061054b5782841015610514576103296044358361124b565b8510156104dd5761033b60035461125e565b80600355600052600460205260406000209587519889116104c957506103618654611183565b601f8111610481575b50602090601f891160011461041c57509680600f9798600091610411575b508160011b916000199060031b1c19161785555b600185015560443560028501556003840155600483015560058201554260078201550161010061ff00198254161790557f54de87d9be1b1f358f1f48a16c248c483d4991bc43d54bf3962b247eae8a47a0610408600354926040519182916020835260208301906111df565b0390a260018055005b905088015189610388565b8816908660005260206000209160005b8181106104695750918991600f999a60019410610450575b5050811b01855561039c565b8a015160001960f88460031b161c191690558980610444565b9192602060018192868d01518155019401920161042c565b866000526020600020601f8a0160051c81019160208b106104bf575b601f0160051c01905b8181106104b3575061036a565b600081556001016104a6565b909150819061049d565b634e487b7160e01b60009081526041600452fd5b60405162461bcd60e51b8152602060048201526010818801526f125b9d985b1a5908191a5cd8dbdd5b9d60821b6044820152606490fd5b60405162461bcd60e51b8152602060048201526010818801526f41756374696f6e20746f6f206c6f6e6760801b6044820152606490fd5b60405162461bcd60e51b815260206004820152600d818801526c4d696e2032206d656d6265727360981b6044820152606490fd5b3461015a57600036600319011261015a5760206040516127108152f35b3461015a5760208060031936011261015a5760043560005260048152604060002060405160009180546105ce81611183565b8084526001918683821691826000146106dd5750506001146106a7575b509060ff916105ff846106599603856111bd565b81015490600281015460038201546004830154600584015460068501549060078601549260088701549460018060a01b03600d8901541696600f600e8a0154990154996040519e8f9e8f9e8f6101a09081815201906111df565b9d015260408d015260608c015260808b015260a08a015260c089015260e0880152610100870152610120860152610140850152818116151561016085015260081c1615156101808301520390f35b93508160005284806000206000905b8682106106ca5750840101935060ff6105eb565b80548683018401529082019083016106b6565b60ff19168682015291151560051b8501909101945060ff90506105eb565b3461015a57600036600319011261015a576020600354604051908152f35b3461015a57600036600319011261015a576000546040516001600160a01b039091168152602090f35b3461015a5760208060031936011261015a5760043561075f61126d565b806000526004825260406000209133600052600a8301815261078860ff604060002054166112be565b600c83013360005280825260ff604060002054166108d7576001840180546040516323b872dd60e01b81523360048201523060248201526044810191909152909190838160648160007f00000000000000000000000000000000000000000000000000000000000000006001600160a01b03165af19081156108cb5760009161089e575b501561086d577f3b595e267f7dc5dd7960dca6ca4497e7d37cf5594fdb7fb48a92c9988d9bf32692916008913360005283526040600020600160ff1982541617905554940161085c85825461130f565b90556040519384523393a360018055005b60405162461bcd60e51b81526004810184905260096024820152681554d110c819985a5b60ba1b6044820152606490fd5b6108be9150843d86116108c4575b6108b681836111bd565b8101906112f7565b8661080c565b503d6108ac565b6040513d6000823e3d90fd5b60405162461bcd60e51b815260048101839052600c60248201526b105b1c9958591e481c185a5960a21b6044820152606490fd5b3461015a57600036600319011261015a5761092461121f565b600080546001600160a01b0319811682556001600160a01b03167f8be0079c531659141344cd1fd0a4f28419497f9722a3daafe3b4186f6b6457e08280a3005b3461015a57604036600319011261015a576004356024359080600052602060048152604060002033600052600a810182526109a660ff604060002054166112be565b33600052600b8101825260ff60406000205416610ade576109d0600782015460048301549061130f565b421015610aa857600e81018054851115610a6f5760058201548510610a35577f0e54eff26401bf69b81b26f60bd85ef47f5d85275c1d268d84f68d6897431c47929185600d925501336001600160601b0360a01b8254161790556040519384523393a3005b60405162461bcd60e51b815260048101849052601260248201527110995b1bddc81b5a5b88191a5cd8dbdd5b9d60721b6044820152606490fd5b60405162461bcd60e51b8152600481018490526011602482015270125b98dc99585cd948191a5cd8dbdd5b9d607a1b6044820152606490fd5b60405162461bcd60e51b815260048101839052600e60248201526d105d58dd1a5bdb8818db1bdcd95960921b6044820152606490fd5b60405162461bcd60e51b8152600481018390526016602482015275416c726561647920776f6e2070726576696f75736c7960501b6044820152606490fd5b3461015a5760208060031936011261015a5760043590610b3a61126d565b8160005260048152604060002091610b5b600784015460048501549061130f565b4210610ef757600f83019260ff845416610ec857600881015460019384830154956009840192835490610b8e828a61124b565b11610e8b57600d8501546001600160a01b039190821680610e785750610be5610bb688611329565b91610be06005890154915b610bda612710610bd36002548661124b565b048461131c565b9c61124b565b61131c565b60405163a9059cbb60e01b81526001600160a01b038316600482015260248101829052909990858160448160007f000000000000000000000000000000000000000000000000000000000000000089165af19081156108cb57600091610e5b575b5015610e285785546000198101908111610e12578015610dfc5789919493940495816000905b610d82575b50505082600691169586600052600b8101855260406000209260ff19938a85825416179055898482541617905501610ca9815461125e565b9055856000526004835286604060002092426007850155600d84016001600160601b0360a01b81541690556000600e85015560006008850155600f84018381541690556000600c600986019501925b610d3a575b5088887f81e5a25d0dd0f1e611e25aae7ef5cf1848ef35f6e90c7c008cdc30b1d07c74e160608a8a8f8b6040519384528301526040820152a28055005b8454811015610d7d5790610d748282610d568d97969589611290565b90549060031b1c16600052838852604060002085815416905561125e565b90919293610cf8565b610cfd565b858296959654821015610df35790610dba91610d9e8285611290565b90549082600392818a1692841b1c1603610dc3575b505061125e565b82959495610c6c565b610dcd8386611290565b9054911b1c16600052600588526040600020610dea8a825461130f565b9055858e610db3565b50949394610c71565b634e487b7160e01b600052601260045260246000fd5b634e487b7160e01b600052601160045260246000fd5b60405162461bcd60e51b815260048101869052600b60248201526a14185e5bdd5d0819985a5b60aa1b6044820152606490fd5b610e729150863d88116108c4576108b681836111bd565b8b610c46565b610be59091610be0600e89015491610bc1565b60405162461bcd60e51b8152600481018490526015602482015274436f6e747269627574696f6e732070656e64696e6760581b6044820152606490fd5b60405162461bcd60e51b815260048101849052600760248201526614d95d1d1b195960ca1b6044820152606490fd5b60405162461bcd60e51b815260048101839052600f60248201526e41756374696f6e206f6e676f696e6760881b6044820152606490fd5b3461015a57600036600319011261015a57610f4761126d565b33600052602060058152604060002054908115611056573360008181526005835260408082208290555163a9059cbb60e01b81526004810192909252602482018490528290829060449082906001600160a01b037f0000000000000000000000000000000000000000000000000000000000000000165af19081156108cb57600091611039575b5015611005577fee503bee2bb6a87e57bc57db795f98137327401a0e7b7ce42e37926cc1a9ca4d906040519283523392a260018055005b6064906040519062461bcd60e51b82526004820152600d60248201526c15da5d1a191c985dc819985a5b609a1b6044820152fd5b6110509150823d84116108c4576108b681836111bd565b83610fce565b6064906040519062461bcd60e51b82526004820152600a6024820152694e6f2062616c616e636560b01b6044820152fd5b3461015a57600036600319011261015a576020600254604051908152f35b3461015a57602036600319011261015a576004356110c161121f565b6103e881116110cf57600255005b60405162461bcd60e51b815260206004820152600c60248201526b08ccaca40e8dede40d0d2ced60a31b6044820152606490fd5b3461015a57600036600319011261015a576040517f00000000000000000000000000000000000000000000000000000000000000006001600160a01b03168152602090f35b3461015a57602036600319011261015a576004356001600160a01b038116919082900361015a57602091600052600582526040600020548152f35b90600182811c921680156111b3575b602083101461119d57565b634e487b7160e01b600052602260045260246000fd5b91607f1691611192565b90601f8019910116810190811067ffffffffffffffff82111761020b57604052565b919082519283825260005b84811061120b575050826000602080949584010152601f8019910116010190565b6020818301810151848301820152016111ea565b6000546001600160a01b0316330361123357565b60405163118cdaa760e01b8152336004820152602490fd5b81810292918115918404141715610e1257565b6000198114610e125760010190565b60026001541461127e576002600155565b604051633ee5aeb560e01b8152600490fd5b80548210156112a85760005260206000200190600090565b634e487b7160e01b600052603260045260246000fd5b156112c557565b60405162461bcd60e51b815260206004820152600a6024820152692737ba1036b2b6b132b960b11b6044820152606490fd5b9081602091031261015a5751801515810361015a5790565b91908201809211610e1257565b91908203918211610e1257565b6000908152602060048152604080832083916009820192600b84549301905b83811061137c57505050156113685782529020546001600160a01b031690565b634e487b7160e01b83526032600452602483fd5b6113868186611290565b60018060a01b03809254600392831b1c16895283885260ff858a205416156113b85750506113b39061125e565b611348565b96509650925050506113c991611290565b9054911b1c169056fea2646970667358221220381e101c4096e862067392e1ca223179c5a0ff27911e2cedec13187e8655a59f64736f6c63430008140033","opcodes":"PUSH1 0xA0 CALLVALUE PUSH2 0xE6 JUMPI PUSH1 0x1F PUSH2 0x150A CODESIZE DUP2 SWAP1 SUB SWAP2 DUP3 ADD PUSH1 0x1F NOT AND DUP4 ADD SWAP2 PUSH1 0x1 PUSH1 0x1 PUSH1 0x40 SHL SUB DUP4 GT DUP5 DUP5 LT OR PUSH2 0xEB JUMPI DUP1 DUP5 SWAP3 PUSH1 0x20 SWAP5 PUSH1 0x40 MSTORE DUP4 CODECOPY DUP2 ADD SUB SLT PUSH2 0xE6 JUMPI MLOAD PUSH1 0x1 PUSH1 0x1 PUSH1 0xA0 SHL SUB SWAP1 DUP2 DUP2 AND SWAP1 DUP2 SWAP1 SUB PUSH2 0xE6 JUMPI CALLER ISZERO PUSH2 0xCD JUMPI PUSH1 0x0 SLOAD CALLER PUSH1 0x1 DUP1 PUSH1 0xA0 SHL SUB NOT DUP3 AND OR PUSH1 0x0 SSTORE PUSH1 0x40 MLOAD SWAP3 CALLER SWAP2 AND PUSH32 0x8BE0079C531659141344CD1FD0A4F28419497F9722A3DAAFE3B4186F6B6457E0 PUSH1 0x0 DUP1 LOG3 PUSH1 0x1 DUP1 SSTORE PUSH1 0x64 PUSH1 0x2 SSTORE PUSH1 0x80 MSTORE PUSH2 0x1408 SWAP1 DUP2 PUSH2 0x102 DUP3 CODECOPY PUSH1 0x80 MLOAD DUP2 DUP2 DUP2 PUSH2 0x7D3 ADD MSTORE DUP2 DUP2 PUSH2 0xC14 ADD MSTORE DUP2 DUP2 PUSH2 0xF9D ADD MSTORE PUSH2 0x1119 ADD MSTORE RETURN JUMPDEST PUSH1 0x40 MLOAD PUSH4 0x1E4FBDF7 PUSH1 0xE0 SHL DUP2 MSTORE PUSH1 0x0 PUSH1 0x4 DUP3 ADD MSTORE PUSH1 0x24 SWAP1 REVERT JUMPDEST PUSH1 0x0 DUP1 REVERT JUMPDEST PUSH4 0x4E487B71 PUSH1 0xE0 SHL PUSH1 0x0 MSTORE PUSH1 0x41 PUSH1 0x4 MSTORE PUSH1 0x24 PUSH1 0x0 REVERT INVALID PUSH1 0x80 DUP1 PUSH1 0x40 MSTORE PUSH1 0x4 CALLDATASIZE LT ISZERO PUSH2 0x13 JUMPI PUSH1 0x0 DUP1 REVERT JUMPDEST PUSH1 0x0 CALLDATALOAD PUSH1 0xE0 SHR SWAP1 DUP2 PUSH4 0x103C92B EQ PUSH2 0x1148 JUMPI POP DUP1 PUSH4 0x11EAC855 EQ PUSH2 0x1103 JUMPI DUP1 PUSH4 0x12E8E2C3 EQ PUSH2 0x10A5 JUMPI DUP1 PUSH4 0x22DCD13E EQ PUSH2 0x1087 JUMPI DUP1 PUSH4 0x2E92ABDD EQ PUSH2 0xF2E JUMPI DUP1 PUSH4 0x2E993611 EQ PUSH2 0xB1C JUMPI DUP1 PUSH4 0x57C90DE5 EQ PUSH2 0x964 JUMPI DUP1 PUSH4 0x715018A6 EQ PUSH2 0x90B JUMPI DUP1 PUSH4 0x830125BA EQ PUSH2 0x742 JUMPI DUP1 PUSH4 0x8DA5CB5B EQ PUSH2 0x719 JUMPI DUP1 PUSH4 0x8F23B326 EQ PUSH2 0x6FB JUMPI DUP1 PUSH4 0x96324BD4 EQ PUSH2 0x59C JUMPI DUP1 PUSH4 0xE1A45218 EQ PUSH2 0x57F JUMPI DUP1 PUSH4 0xE8B27A53 EQ PUSH2 0x27E JUMPI DUP1 PUSH4 0xEED02E4B EQ PUSH2 0x15F JUMPI PUSH4 0xF2FDE38B EQ PUSH2 0xCF JUMPI PUSH1 0x0 DUP1 REVERT JUMPDEST CALLVALUE PUSH2 0x15A JUMPI PUSH1 0x20 CALLDATASIZE PUSH1 0x3 NOT ADD SLT PUSH2 0x15A JUMPI PUSH1 0x4 CALLDATALOAD PUSH1 0x1 PUSH1 0x1 PUSH1 0xA0 SHL SUB DUP2 DUP2 AND SWAP2 DUP3 SWAP1 SUB PUSH2 0x15A JUMPI PUSH2 0xFE PUSH2 0x121F JUMP JUMPDEST DUP2 ISZERO PUSH2 0x141 JUMPI PUSH1 0x0 SLOAD DUP3 PUSH1 0x1 PUSH1 0x1 PUSH1 0x60 SHL SUB PUSH1 0xA0 SHL DUP3 AND OR PUSH1 0x0 SSTORE AND PUSH32 0x8BE0079C531659141344CD1FD0A4F28419497F9722A3DAAFE3B4186F6B6457E0 PUSH1 0x0 DUP1 LOG3 STOP JUMPDEST PUSH1 0x40 MLOAD PUSH4 0x1E4FBDF7 PUSH1 0xE0 SHL DUP2 MSTORE PUSH1 0x0 PUSH1 0x4 DUP3 ADD MSTORE PUSH1 0x24 SWAP1 REVERT JUMPDEST PUSH1 0x0 DUP1 REVERT JUMPDEST CALLVALUE PUSH2 0x15A JUMPI PUSH1 0x20 DUP1 PUSH1 0x3 NOT CALLDATASIZE ADD SLT PUSH2 0x15A JUMPI PUSH2 0x179 PUSH2 0x126D JUMP JUMPDEST PUSH1 0x4 CALLDATALOAD PUSH1 0x0 MSTORE PUSH1 0x4 DUP2 MSTORE PUSH1 0x40 PUSH1 0x0 KECCAK256 SWAP1 PUSH1 0x9 DUP3 ADD DUP1 SLOAD SWAP3 PUSH1 0x2 DUP2 ADD SLOAD DUP5 LT ISZERO PUSH2 0x253 JUMPI PUSH1 0xA ADD SWAP3 CALLER PUSH1 0x0 MSTORE DUP4 DUP4 MSTORE PUSH1 0xFF PUSH1 0x40 PUSH1 0x0 KECCAK256 SLOAD AND PUSH2 0x221 JUMPI PUSH9 0x10000000000000000 DUP2 LT ISZERO PUSH2 0x20B JUMPI PUSH2 0x1D4 SWAP2 PUSH1 0x1 DUP3 ADD DUP2 SSTORE PUSH2 0x1290 JUMP JUMPDEST DUP2 SLOAD SWAP1 PUSH1 0x3 SHL SWAP1 CALLER DUP3 SHL SWAP2 PUSH1 0x1 DUP1 PUSH1 0xA0 SHL SUB SWAP1 SHL NOT AND OR SWAP1 SSTORE CALLER PUSH1 0x0 MSTORE MSTORE PUSH1 0x40 PUSH1 0x0 KECCAK256 PUSH1 0x1 PUSH1 0xFF NOT DUP3 SLOAD AND OR SWAP1 SSTORE PUSH1 0x1 DUP1 SSTORE PUSH1 0x0 DUP1 RETURN JUMPDEST PUSH4 0x4E487B71 PUSH1 0xE0 SHL PUSH1 0x0 MSTORE PUSH1 0x41 PUSH1 0x4 MSTORE PUSH1 0x24 PUSH1 0x0 REVERT JUMPDEST PUSH1 0x40 MLOAD PUSH3 0x461BCD PUSH1 0xE5 SHL DUP2 MSTORE PUSH1 0x4 DUP2 ADD DUP5 SWAP1 MSTORE PUSH1 0xA PUSH1 0x24 DUP3 ADD MSTORE PUSH10 0x20B63932B0B23C9034B7 PUSH1 0xB1 SHL PUSH1 0x44 DUP3 ADD MSTORE PUSH1 0x64 SWAP1 REVERT JUMPDEST PUSH1 0x40 MLOAD PUSH3 0x461BCD PUSH1 0xE5 SHL DUP2 MSTORE PUSH1 0x4 DUP1 DUP3 ADD DUP6 SWAP1 MSTORE PUSH1 0x24 DUP3 ADD MSTORE PUSH4 0x119D5B1B PUSH1 0xE2 SHL PUSH1 0x44 DUP3 ADD MSTORE PUSH1 0x64 SWAP1 REVERT JUMPDEST CALLVALUE PUSH2 0x15A JUMPI PUSH1 0xC0 CALLDATASIZE PUSH1 0x3 NOT ADD SLT PUSH2 0x15A JUMPI PUSH8 0xFFFFFFFFFFFFFFFF PUSH1 0x4 CALLDATALOAD DUP2 DUP2 GT PUSH2 0x15A JUMPI CALLDATASIZE PUSH1 0x23 DUP3 ADD SLT ISZERO PUSH2 0x15A JUMPI DUP1 PUSH1 0x4 ADD CALLDATALOAD SWAP1 DUP3 DUP3 GT PUSH2 0x20B JUMPI PUSH1 0x40 MLOAD SWAP2 PUSH1 0x1F NOT SWAP1 PUSH2 0x2D4 PUSH1 0x1F DUP3 ADD DUP4 AND PUSH1 0x20 ADD DUP6 PUSH2 0x11BD JUMP JUMPDEST DUP1 DUP5 MSTORE PUSH1 0x24 SWAP3 CALLDATASIZE DUP5 DUP4 DUP4 ADD ADD GT PUSH2 0x15A JUMPI DUP2 PUSH1 0x0 SWAP3 DUP6 PUSH1 0x20 SWAP4 ADD DUP4 DUP9 ADD CALLDATACOPY DUP6 ADD ADD MSTORE DUP2 CALLDATALOAD PUSH1 0x64 CALLDATALOAD PUSH1 0x84 CALLDATALOAD SWAP2 PUSH1 0xA4 CALLDATALOAD SWAP4 PUSH2 0x30B PUSH2 0x126D JUMP JUMPDEST PUSH1 0x2 PUSH1 0x44 CALLDATALOAD LT PUSH2 0x54B JUMPI DUP3 DUP5 LT ISZERO PUSH2 0x514 JUMPI PUSH2 0x329 PUSH1 0x44 CALLDATALOAD DUP4 PUSH2 0x124B JUMP JUMPDEST DUP6 LT ISZERO PUSH2 0x4DD JUMPI PUSH2 0x33B PUSH1 0x3 SLOAD PUSH2 0x125E JUMP JUMPDEST DUP1 PUSH1 0x3 SSTORE PUSH1 0x0 MSTORE PUSH1 0x4 PUSH1 0x20 MSTORE PUSH1 0x40 PUSH1 0x0 KECCAK256 SWAP6 DUP8 MLOAD SWAP9 DUP10 GT PUSH2 0x4C9 JUMPI POP PUSH2 0x361 DUP7 SLOAD PUSH2 0x1183 JUMP JUMPDEST PUSH1 0x1F DUP2 GT PUSH2 0x481 JUMPI JUMPDEST POP PUSH1 0x20 SWAP1 PUSH1 0x1F DUP10 GT PUSH1 0x1 EQ PUSH2 0x41C JUMPI POP SWAP7 DUP1 PUSH1 0xF SWAP8 SWAP9 PUSH1 0x0 SWAP2 PUSH2 0x411 JUMPI JUMPDEST POP DUP2 PUSH1 0x1 SHL SWAP2 PUSH1 0x0 NOT SWAP1 PUSH1 0x3 SHL SHR NOT AND OR DUP6 SSTORE JUMPDEST PUSH1 0x1 DUP6 ADD SSTORE PUSH1 0x44 CALLDATALOAD PUSH1 0x2 DUP6 ADD SSTORE PUSH1 0x3 DUP5 ADD SSTORE PUSH1 0x4 DUP4 ADD SSTORE PUSH1 0x5 DUP3 ADD SSTORE TIMESTAMP PUSH1 0x7 DUP3 ADD SSTORE ADD PUSH2 0x100 PUSH2 0xFF00 NOT DUP3 SLOAD AND OR SWAP1 SSTORE PUSH32 0x54DE87D9BE1B1F358F1F48A16C248C483D4991BC43D54BF3962B247EAE8A47A0 PUSH2 0x408 PUSH1 0x3 SLOAD SWAP3 PUSH1 0x40 MLOAD SWAP2 DUP3 SWAP2 PUSH1 0x20 DUP4 MSTORE PUSH1 0x20 DUP4 ADD SWAP1 PUSH2 0x11DF JUMP JUMPDEST SUB SWAP1 LOG2 PUSH1 0x1 DUP1 SSTORE STOP JUMPDEST SWAP1 POP DUP9 ADD MLOAD DUP10 PUSH2 0x388 JUMP JUMPDEST DUP9 AND SWAP1 DUP7 PUSH1 0x0 MSTORE PUSH1 0x20 PUSH1 0x0 KECCAK256 SWAP2 PUSH1 0x0 JUMPDEST DUP2 DUP2 LT PUSH2 0x469 JUMPI POP SWAP2 DUP10 SWAP2 PUSH1 0xF SWAP10 SWAP11 PUSH1 0x1 SWAP5 LT PUSH2 0x450 JUMPI JUMPDEST POP POP DUP2 SHL ADD DUP6 SSTORE PUSH2 0x39C JUMP JUMPDEST DUP11 ADD MLOAD PUSH1 0x0 NOT PUSH1 0xF8 DUP5 PUSH1 0x3 SHL AND SHR NOT AND SWAP1 SSTORE DUP10 DUP1 PUSH2 0x444 JUMP JUMPDEST SWAP2 SWAP3 PUSH1 0x20 PUSH1 0x1 DUP2 SWAP3 DUP7 DUP14 ADD MLOAD DUP2 SSTORE ADD SWAP5 ADD SWAP3 ADD PUSH2 0x42C JUMP JUMPDEST DUP7 PUSH1 0x0 MSTORE PUSH1 0x20 PUSH1 0x0 KECCAK256 PUSH1 0x1F DUP11 ADD PUSH1 0x5 SHR DUP2 ADD SWAP2 PUSH1 0x20 DUP12 LT PUSH2 0x4BF JUMPI JUMPDEST PUSH1 0x1F ADD PUSH1 0x5 SHR ADD SWAP1 JUMPDEST DUP2 DUP2 LT PUSH2 0x4B3 JUMPI POP PUSH2 0x36A JUMP JUMPDEST PUSH1 0x0 DUP2 SSTORE PUSH1 0x1 ADD PUSH2 0x4A6 JUMP JUMPDEST SWAP1 SWAP2 POP DUP2 SWAP1 PUSH2 0x49D JUMP JUMPDEST PUSH4 0x4E487B71 PUSH1 0xE0 SHL PUSH1 0x0 SWAP1 DUP2 MSTORE PUSH1 0x41 PUSH1 0x4 MSTORE REVERT JUMPDEST PUSH1 0x40 MLOAD PUSH3 0x461BCD PUSH1 0xE5 SHL DUP2 MSTORE PUSH1 0x20 PUSH1 0x4 DUP3 ADD MSTORE PUSH1 0x10 DUP2 DUP9 ADD MSTORE PUSH16 0x125B9D985B1A5908191A5CD8DBDD5B9D PUSH1 0x82 SHL PUSH1 0x44 DUP3 ADD MSTORE PUSH1 0x64 SWAP1 REVERT JUMPDEST PUSH1 0x40 MLOAD PUSH3 0x461BCD PUSH1 0xE5 SHL DUP2 MSTORE PUSH1 0x20 PUSH1 0x4 DUP3 ADD MSTORE PUSH1 0x10 DUP2 DUP9 ADD MSTORE PUSH16 0x41756374696F6E20746F6F206C6F6E67 PUSH1 0x80 SHL PUSH1 0x44 DUP3 ADD MSTORE PUSH1 0x64 SWAP1 REVERT JUMPDEST PUSH1 0x40 MLOAD PUSH3 0x461BCD PUSH1 0xE5 SHL DUP2 MSTORE PUSH1 0x20 PUSH1 0x4 DUP3 ADD MSTORE PUSH1 0xD DUP2 DUP9 ADD MSTORE PUSH13 0x4D696E2032206D656D62657273 PUSH1 0x98 SHL PUSH1 0x44 DUP3 ADD MSTORE PUSH1 0x64 SWAP1 REVERT JUMPDEST CALLVALUE PUSH2 0x15A JUMPI PUSH1 0x0 CALLDATASIZE PUSH1 0x3 NOT ADD SLT PUSH2 0x15A JUMPI PUSH1 0x20 PUSH1 0x40 MLOAD PUSH2 0x2710 DUP2 MSTORE RETURN JUMPDEST CALLVALUE PUSH2 0x15A JUMPI PUSH1 0x20 DUP1 PUSH1 0x3 NOT CALLDATASIZE ADD SLT PUSH2 0x15A JUMPI PUSH1 0x4 CALLDATALOAD PUSH1 0x0 MSTORE PUSH1 0x4 DUP2 MSTORE PUSH1 0x40 PUSH1 0x0 KECCAK256 PUSH1 0x40 MLOAD PUSH1 0x0 SWAP2 DUP1 SLOAD PUSH2 0x5CE DUP2 PUSH2 0x1183 JUMP JUMPDEST DUP1 DUP5 MSTORE PUSH1 0x1 SWAP2 DUP7 DUP4 DUP3 AND SWAP2 DUP3 PUSH1 0x0 EQ PUSH2 0x6DD JUMPI POP POP PUSH1 0x1 EQ PUSH2 0x6A7 JUMPI JUMPDEST POP SWAP1 PUSH1 0xFF SWAP2 PUSH2 0x5FF DUP5 PUSH2 0x659 SWAP7 SUB DUP6 PUSH2 0x11BD JUMP JUMPDEST DUP2 ADD SLOAD SWAP1 PUSH1 0x2 DUP2 ADD SLOAD PUSH1 0x3 DUP3 ADD SLOAD PUSH1 0x4 DUP4 ADD SLOAD PUSH1 0x5 DUP5 ADD SLOAD PUSH1 0x6 DUP6 ADD SLOAD SWAP1 PUSH1 0x7 DUP7 ADD SLOAD SWAP3 PUSH1 0x8 DUP8 ADD SLOAD SWAP5 PUSH1 0x1 DUP1 PUSH1 0xA0 SHL SUB PUSH1 0xD DUP10 ADD SLOAD AND SWAP7 PUSH1 0xF PUSH1 0xE DUP11 ADD SLOAD SWAP10 ADD SLOAD SWAP10 PUSH1 0x40 MLOAD SWAP15 DUP16 SWAP15 DUP16 SWAP15 DUP16 PUSH2 0x1A0 SWAP1 DUP2 DUP2 MSTORE ADD SWAP1 PUSH2 0x11DF JUMP JUMPDEST SWAP14 ADD MSTORE PUSH1 0x40 DUP14 ADD MSTORE PUSH1 0x60 DUP13 ADD MSTORE PUSH1 0x80 DUP12 ADD MSTORE PUSH1 0xA0 DUP11 ADD MSTORE PUSH1 0xC0 DUP10 ADD MSTORE PUSH1 0xE0 DUP9 ADD MSTORE PUSH2 0x100 DUP8 ADD MSTORE PUSH2 0x120 DUP7 ADD MSTORE PUSH2 0x140 DUP6 ADD MSTORE DUP2 DUP2 AND ISZERO ISZERO PUSH2 0x160 DUP6 ADD MSTORE PUSH1 0x8 SHR AND ISZERO ISZERO PUSH2 0x180 DUP4 ADD MSTORE SUB SWAP1 RETURN JUMPDEST SWAP4 POP DUP2 PUSH1 0x0 MSTORE DUP5 DUP1 PUSH1 0x0 KECCAK256 PUSH1 0x0 SWAP1 JUMPDEST DUP7 DUP3 LT PUSH2 0x6CA JUMPI POP DUP5 ADD ADD SWAP4 POP PUSH1 0xFF PUSH2 0x5EB JUMP JUMPDEST DUP1 SLOAD DUP7 DUP4 ADD DUP5 ADD MSTORE SWAP1 DUP3 ADD SWAP1 DUP4 ADD PUSH2 0x6B6 JUMP JUMPDEST PUSH1 0xFF NOT AND DUP7 DUP3 ADD MSTORE SWAP2 ISZERO ISZERO PUSH1 0x5 SHL DUP6 ADD SWAP1 SWAP2 ADD SWAP5 POP PUSH1 0xFF SWAP1 POP PUSH2 0x5EB JUMP JUMPDEST CALLVALUE PUSH2 0x15A JUMPI PUSH1 0x0 CALLDATASIZE PUSH1 0x3 NOT ADD SLT PUSH2 0x15A JUMPI PUSH1 0x20 PUSH1 0x3 SLOAD PUSH1 0x40 MLOAD SWAP1 DUP2 MSTORE RETURN JUMPDEST CALLVALUE PUSH2 0x15A JUMPI PUSH1 0x0 CALLDATASIZE PUSH1 0x3 NOT ADD SLT PUSH2 0x15A JUMPI PUSH1 0x0 SLOAD PUSH1 0x40 MLOAD PUSH1 0x1 PUSH1 0x1 PUSH1 0xA0 SHL SUB SWAP1 SWAP2 AND DUP2 MSTORE PUSH1 0x20 SWAP1 RETURN JUMPDEST CALLVALUE PUSH2 0x15A JUMPI PUSH1 0x20 DUP1 PUSH1 0x3 NOT CALLDATASIZE ADD SLT PUSH2 0x15A JUMPI PUSH1 0x4 CALLDATALOAD PUSH2 0x75F PUSH2 0x126D JUMP JUMPDEST DUP1 PUSH1 0x0 MSTORE PUSH1 0x4 DUP3 MSTORE PUSH1 0x40 PUSH1 0x0 KECCAK256 SWAP2 CALLER PUSH1 0x0 MSTORE PUSH1 0xA DUP4 ADD DUP2 MSTORE PUSH2 0x788 PUSH1 0xFF PUSH1 0x40 PUSH1 0x0 KECCAK256 SLOAD AND PUSH2 0x12BE JUMP JUMPDEST PUSH1 0xC DUP4 ADD CALLER PUSH1 0x0 MSTORE DUP1 DUP3 MSTORE PUSH1 0xFF PUSH1 0x40 PUSH1 0x0 KECCAK256 SLOAD AND PUSH2 0x8D7 JUMPI PUSH1 0x1 DUP5 ADD DUP1 SLOAD PUSH1 0x40 MLOAD PUSH4 0x23B872DD PUSH1 0xE0 SHL DUP2 MSTORE CALLER PUSH1 0x4 DUP3 ADD MSTORE ADDRESS PUSH1 0x24 DUP3 ADD MSTORE PUSH1 0x44 DUP2 ADD SWAP2 SWAP1 SWAP2 MSTORE SWAP1 SWAP2 SWAP1 DUP4 DUP2 PUSH1 0x64 DUP2 PUSH1 0x0 PUSH32 0x0 PUSH1 0x1 PUSH1 0x1 PUSH1 0xA0 SHL SUB AND GAS CALL SWAP1 DUP2 ISZERO PUSH2 0x8CB JUMPI PUSH1 0x0 SWAP2 PUSH2 0x89E JUMPI JUMPDEST POP ISZERO PUSH2 0x86D JUMPI PUSH32 0x3B595E267F7DC5DD7960DCA6CA4497E7D37CF5594FDB7FB48A92C9988D9BF326 SWAP3 SWAP2 PUSH1 0x8 SWAP2 CALLER PUSH1 0x0 MSTORE DUP4 MSTORE PUSH1 0x40 PUSH1 0x0 KECCAK256 PUSH1 0x1 PUSH1 0xFF NOT DUP3 SLOAD AND OR SWAP1 SSTORE SLOAD SWAP5 ADD PUSH2 0x85C DUP6 DUP3 SLOAD PUSH2 0x130F JUMP JUMPDEST SWAP1 SSTORE PUSH1 0x40 MLOAD SWAP4 DUP5 MSTORE CALLER SWAP4 LOG3 PUSH1 0x1 DUP1 SSTORE STOP JUMPDEST PUSH1 0x40 MLOAD PUSH3 0x461BCD PUSH1 0xE5 SHL DUP2 MSTORE PUSH1 0x4 DUP2 ADD DUP5 SWAP1 MSTORE PUSH1 0x9 PUSH1 0x24 DUP3 ADD MSTORE PUSH9 0x1554D110C819985A5B PUSH1 0xBA SHL PUSH1 0x44 DUP3 ADD MSTORE PUSH1 0x64 SWAP1 REVERT JUMPDEST PUSH2 0x8BE SWAP2 POP DUP5 RETURNDATASIZE DUP7 GT PUSH2 0x8C4 JUMPI JUMPDEST PUSH2 0x8B6 DUP2 DUP4 PUSH2 0x11BD JUMP JUMPDEST DUP2 ADD SWAP1 PUSH2 0x12F7 JUMP JUMPDEST DUP7 PUSH2 0x80C JUMP JUMPDEST POP RETURNDATASIZE PUSH2 0x8AC JUMP JUMPDEST PUSH1 0x40 MLOAD RETURNDATASIZE PUSH1 0x0 DUP3 RETURNDATACOPY RETURNDATASIZE SWAP1 REVERT JUMPDEST PUSH1 0x40 MLOAD PUSH3 0x461BCD PUSH1 0xE5 SHL DUP2 MSTORE PUSH1 0x4 DUP2 ADD DUP4 SWAP1 MSTORE PUSH1 0xC PUSH1 0x24 DUP3 ADD MSTORE PUSH12 0x105B1C9958591E481C185A59 PUSH1 0xA2 SHL PUSH1 0x44 DUP3 ADD MSTORE PUSH1 0x64 SWAP1 REVERT JUMPDEST CALLVALUE PUSH2 0x15A JUMPI PUSH1 0x0 CALLDATASIZE PUSH1 0x3 NOT ADD SLT PUSH2 0x15A JUMPI PUSH2 0x924 PUSH2 0x121F JUMP JUMPDEST PUSH1 0x0 DUP1 SLOAD PUSH1 0x1 PUSH1 0x1 PUSH1 0xA0 SHL SUB NOT DUP2 AND DUP3 SSTORE PUSH1 0x1 PUSH1 0x1 PUSH1 0xA0 SHL SUB AND PUSH32 0x8BE0079C531659141344CD1FD0A4F28419497F9722A3DAAFE3B4186F6B6457E0 DUP3 DUP1 LOG3 STOP JUMPDEST CALLVALUE PUSH2 0x15A JUMPI PUSH1 0x40 CALLDATASIZE PUSH1 0x3 NOT ADD SLT PUSH2 0x15A JUMPI PUSH1 0x4 CALLDATALOAD PUSH1 0x24 CALLDATALOAD SWAP1 DUP1 PUSH1 0x0 MSTORE PUSH1 0x20 PUSH1 0x4 DUP2 MSTORE PUSH1 0x40 PUSH1 0x0 KECCAK256 CALLER PUSH1 0x0 MSTORE PUSH1 0xA DUP2 ADD DUP3 MSTORE PUSH2 0x9A6 PUSH1 0xFF PUSH1 0x40 PUSH1 0x0 KECCAK256 SLOAD AND PUSH2 0x12BE JUMP JUMPDEST CALLER PUSH1 0x0 MSTORE PUSH1 0xB DUP2 ADD DUP3 MSTORE PUSH1 0xFF PUSH1 0x40 PUSH1 0x0 KECCAK256 SLOAD AND PUSH2 0xADE JUMPI PUSH2 0x9D0 PUSH1 0x7 DUP3 ADD SLOAD PUSH1 0x4 DUP4 ADD SLOAD SWAP1 PUSH2 0x130F JUMP JUMPDEST TIMESTAMP LT ISZERO PUSH2 0xAA8 JUMPI PUSH1 0xE DUP2 ADD DUP1 SLOAD DUP6 GT ISZERO PUSH2 0xA6F JUMPI PUSH1 0x5 DUP3 ADD SLOAD DUP6 LT PUSH2 0xA35 JUMPI PUSH32 0xE54EFF26401BF69B81B26F60BD85EF47F5D85275C1D268D84F68D6897431C47 SWAP3 SWAP2 DUP6 PUSH1 0xD SWAP3 SSTORE ADD CALLER PUSH1 0x1 PUSH1 0x1 PUSH1 0x60 SHL SUB PUSH1 0xA0 SHL DUP3 SLOAD AND OR SWAP1 SSTORE PUSH1 0x40 MLOAD SWAP4 DUP5 MSTORE CALLER SWAP4 LOG3 STOP JUMPDEST PUSH1 0x40 MLOAD PUSH3 0x461BCD PUSH1 0xE5 SHL DUP2 MSTORE PUSH1 0x4 DUP2 ADD DUP5 SWAP1 MSTORE PUSH1 0x12 PUSH1 0x24 DUP3 ADD MSTORE PUSH18 0x10995B1BDDC81B5A5B88191A5CD8DBDD5B9D PUSH1 0x72 SHL PUSH1 0x44 DUP3 ADD MSTORE PUSH1 0x64 SWAP1 REVERT JUMPDEST PUSH1 0x40 MLOAD PUSH3 0x461BCD PUSH1 0xE5 SHL DUP2 MSTORE PUSH1 0x4 DUP2 ADD DUP5 SWAP1 MSTORE PUSH1 0x11 PUSH1 0x24 DUP3 ADD MSTORE PUSH17 0x125B98DC99585CD948191A5CD8DBDD5B9D PUSH1 0x7A SHL PUSH1 0x44 DUP3 ADD MSTORE PUSH1 0x64 SWAP1 REVERT JUMPDEST PUSH1 0x40 MLOAD PUSH3 0x461BCD PUSH1 0xE5 SHL DUP2 MSTORE PUSH1 0x4 DUP2 ADD DUP4 SWAP1 MSTORE PUSH1 0xE PUSH1 0x24 DUP3 ADD MSTORE PUSH14 0x105D58DD1A5BDB8818DB1BDCD959 PUSH1 0x92 SHL PUSH1 0x44 DUP3 ADD MSTORE PUSH1 0x64 SWAP1 REVERT JUMPDEST PUSH1 0x40 MLOAD PUSH3 0x461BCD PUSH1 0xE5 SHL DUP2 MSTORE PUSH1 0x4 DUP2 ADD DUP4 SWAP1 MSTORE PUSH1 0x16 PUSH1 0x24 DUP3 ADD MSTORE PUSH22 0x416C726561647920776F6E2070726576696F75736C79 PUSH1 0x50 SHL PUSH1 0x44 DUP3 ADD MSTORE PUSH1 0x64 SWAP1 REVERT JUMPDEST CALLVALUE PUSH2 0x15A JUMPI PUSH1 0x20 DUP1 PUSH1 0x3 NOT CALLDATASIZE ADD SLT PUSH2 0x15A JUMPI PUSH1 0x4 CALLDATALOAD SWAP1 PUSH2 0xB3A PUSH2 0x126D JUMP JUMPDEST DUP2 PUSH1 0x0 MSTORE PUSH1 0x4 DUP2 MSTORE PUSH1 0x40 PUSH1 0x0 KECCAK256 SWAP2 PUSH2 0xB5B PUSH1 0x7 DUP5 ADD SLOAD PUSH1 0x4 DUP6 ADD SLOAD SWAP1 PUSH2 0x130F JUMP JUMPDEST TIMESTAMP LT PUSH2 0xEF7 JUMPI PUSH1 0xF DUP4 ADD SWAP3 PUSH1 0xFF DUP5 SLOAD AND PUSH2 0xEC8 JUMPI PUSH1 0x8 DUP2 ADD SLOAD PUSH1 0x1 SWAP4 DUP5 DUP4 ADD SLOAD SWAP6 PUSH1 0x9 DUP5 ADD SWAP3 DUP4 SLOAD SWAP1 PUSH2 0xB8E DUP3 DUP11 PUSH2 0x124B JUMP JUMPDEST GT PUSH2 0xE8B JUMPI PUSH1 0xD DUP6 ADD SLOAD PUSH1 0x1 PUSH1 0x1 PUSH1 0xA0 SHL SUB SWAP2 SWAP1 DUP3 AND DUP1 PUSH2 0xE78 JUMPI POP PUSH2 0xBE5 PUSH2 0xBB6 DUP9 PUSH2 0x1329 JUMP JUMPDEST SWAP2 PUSH2 0xBE0 PUSH1 0x5 DUP10 ADD SLOAD SWAP2 JUMPDEST PUSH2 0xBDA PUSH2 0x2710 PUSH2 0xBD3 PUSH1 0x2 SLOAD DUP7 PUSH2 0x124B JUMP JUMPDEST DIV DUP5 PUSH2 0x131C JUMP JUMPDEST SWAP13 PUSH2 0x124B JUMP JUMPDEST PUSH2 0x131C JUMP JUMPDEST PUSH1 0x40 MLOAD PUSH4 0xA9059CBB PUSH1 0xE0 SHL DUP2 MSTORE PUSH1 0x1 PUSH1 0x1 PUSH1 0xA0 SHL SUB DUP4 AND PUSH1 0x4 DUP3 ADD MSTORE PUSH1 0x24 DUP2 ADD DUP3 SWAP1 MSTORE SWAP1 SWAP10 SWAP1 DUP6 DUP2 PUSH1 0x44 DUP2 PUSH1 0x0 PUSH32 0x0 DUP10 AND GAS CALL SWAP1 DUP2 ISZERO PUSH2 0x8CB JUMPI PUSH1 0x0 SWAP2 PUSH2 0xE5B JUMPI JUMPDEST POP ISZERO PUSH2 0xE28 JUMPI DUP6 SLOAD PUSH1 0x0 NOT DUP2 ADD SWAP1 DUP2 GT PUSH2 0xE12 JUMPI DUP1 ISZERO PUSH2 0xDFC JUMPI DUP10 SWAP2 SWAP5 SWAP4 SWAP5 DIV SWAP6 DUP2 PUSH1 0x0 SWAP1 JUMPDEST PUSH2 0xD82 JUMPI JUMPDEST POP POP POP DUP3 PUSH1 0x6 SWAP2 AND SWAP6 DUP7 PUSH1 0x0 MSTORE PUSH1 0xB DUP2 ADD DUP6 MSTORE PUSH1 0x40 PUSH1 0x0 KECCAK256 SWAP3 PUSH1 0xFF NOT SWAP4 DUP11 DUP6 DUP3 SLOAD AND OR SWAP1 SSTORE DUP10 DUP5 DUP3 SLOAD AND OR SWAP1 SSTORE ADD PUSH2 0xCA9 DUP2 SLOAD PUSH2 0x125E JUMP JUMPDEST SWAP1 SSTORE DUP6 PUSH1 0x0 MSTORE PUSH1 0x4 DUP4 MSTORE DUP7 PUSH1 0x40 PUSH1 0x0 KECCAK256 SWAP3 TIMESTAMP PUSH1 0x7 DUP6 ADD SSTORE PUSH1 0xD DUP5 ADD PUSH1 0x1 PUSH1 0x1 PUSH1 0x60 SHL SUB PUSH1 0xA0 SHL DUP2 SLOAD AND SWAP1 SSTORE PUSH1 0x0 PUSH1 0xE DUP6 ADD SSTORE PUSH1 0x0 PUSH1 0x8 DUP6 ADD SSTORE PUSH1 0xF DUP5 ADD DUP4 DUP2 SLOAD AND SWAP1 SSTORE PUSH1 0x0 PUSH1 0xC PUSH1 0x9 DUP7 ADD SWAP6 ADD SWAP3 JUMPDEST PUSH2 0xD3A JUMPI JUMPDEST POP DUP9 DUP9 PUSH32 0x81E5A25D0DD0F1E611E25AAE7EF5CF1848EF35F6E90C7C008CDC30B1D07C74E1 PUSH1 0x60 DUP11 DUP11 DUP16 DUP12 PUSH1 0x40 MLOAD SWAP4 DUP5 MSTORE DUP4 ADD MSTORE PUSH1 0x40 DUP3 ADD MSTORE LOG2 DUP1 SSTORE STOP JUMPDEST DUP5 SLOAD DUP2 LT ISZERO PUSH2 0xD7D JUMPI SWAP1 PUSH2 0xD74 DUP3 DUP3 PUSH2 0xD56 DUP14 SWAP8 SWAP7 SWAP6 DUP10 PUSH2 0x1290 JUMP JUMPDEST SWAP1 SLOAD SWAP1 PUSH1 0x3 SHL SHR AND PUSH1 0x0 MSTORE DUP4 DUP9 MSTORE PUSH1 0x40 PUSH1 0x0 KECCAK256 DUP6 DUP2 SLOAD AND SWAP1 SSTORE PUSH2 0x125E JUMP JUMPDEST SWAP1 SWAP2 SWAP3 SWAP4 PUSH2 0xCF8 JUMP JUMPDEST PUSH2 0xCFD JUMP JUMPDEST DUP6 DUP3 SWAP7 SWAP6 SWAP7 SLOAD DUP3 LT ISZERO PUSH2 0xDF3 JUMPI SWAP1 PUSH2 0xDBA SWAP2 PUSH2 0xD9E DUP3 DUP6 PUSH2 0x1290 JUMP JUMPDEST SWAP1 SLOAD SWAP1 DUP3 PUSH1 0x3 SWAP3 DUP2 DUP11 AND SWAP3 DUP5 SHL SHR AND SUB PUSH2 0xDC3 JUMPI JUMPDEST POP POP PUSH2 0x125E JUMP JUMPDEST DUP3 SWAP6 SWAP5 SWAP6 PUSH2 0xC6C JUMP JUMPDEST PUSH2 0xDCD DUP4 DUP7 PUSH2 0x1290 JUMP JUMPDEST SWAP1 SLOAD SWAP2 SHL SHR AND PUSH1 0x0 MSTORE PUSH1 0x5 DUP9 MSTORE PUSH1 0x40 PUSH1 0x0 KECCAK256 PUSH2 0xDEA DUP11 DUP3 SLOAD PUSH2 0x130F JUMP JUMPDEST SWAP1 SSTORE DUP6 DUP15 PUSH2 0xDB3 JUMP JUMPDEST POP SWAP5 SWAP4 SWAP5 PUSH2 0xC71 JUMP JUMPDEST PUSH4 0x4E487B71 PUSH1 0xE0 SHL PUSH1 0x0 MSTORE PUSH1 0x12 PUSH1 0x4 MSTORE PUSH1 0x24 PUSH1 0x0 REVERT JUMPDEST PUSH4 0x4E487B71 PUSH1 0xE0 SHL PUSH1 0x0 MSTORE PUSH1 0x11 PUSH1 0x4 MSTORE PUSH1 0x24 PUSH1 0x0 REVERT JUMPDEST PUSH1 0x40 MLOAD PUSH3 0x461BCD PUSH1 0xE5 SHL DUP2 MSTORE PUSH1 0x4 DUP2 ADD DUP7 SWAP1 MSTORE PUSH1 0xB PUSH1 0x24 DUP3 ADD MSTORE PUSH11 0x14185E5BDD5D0819985A5B PUSH1 0xAA SHL PUSH1 0x44 DUP3 ADD MSTORE PUSH1 0x64 SWAP1 REVERT JUMPDEST PUSH2 0xE72 SWAP2 POP DUP7 RETURNDATASIZE DUP9 GT PUSH2 0x8C4 JUMPI PUSH2 0x8B6 DUP2 DUP4 PUSH2 0x11BD JUMP JUMPDEST DUP12 PUSH2 0xC46 JUMP JUMPDEST PUSH2 0xBE5 SWAP1 SWAP2 PUSH2 0xBE0 PUSH1 0xE DUP10 ADD SLOAD SWAP2 PUSH2 0xBC1 JUMP JUMPDEST PUSH1 0x40 MLOAD PUSH3 0x461BCD PUSH1 0xE5 SHL DUP2 MSTORE PUSH1 0x4 DUP2 ADD DUP5 SWAP1 MSTORE PUSH1 0x15 PUSH1 0x24 DUP3 ADD MSTORE PUSH21 0x436F6E747269627574696F6E732070656E64696E67 PUSH1 0x58 SHL PUSH1 0x44 DUP3 ADD MSTORE PUSH1 0x64 SWAP1 REVERT JUMPDEST PUSH1 0x40 MLOAD PUSH3 0x461BCD PUSH1 0xE5 SHL DUP2 MSTORE PUSH1 0x4 DUP2 ADD DUP5 SWAP1 MSTORE PUSH1 0x7 PUSH1 0x24 DUP3 ADD MSTORE PUSH7 0x14D95D1D1B1959 PUSH1 0xCA SHL PUSH1 0x44 DUP3 ADD MSTORE PUSH1 0x64 SWAP1 REVERT JUMPDEST PUSH1 0x40 MLOAD PUSH3 0x461BCD PUSH1 0xE5 SHL DUP2 MSTORE PUSH1 0x4 DUP2 ADD DUP4 SWAP1 MSTORE PUSH1 0xF PUSH1 0x24 DUP3 ADD MSTORE PUSH15 0x41756374696F6E206F6E676F696E67 PUSH1 0x88 SHL PUSH1 0x44 DUP3 ADD MSTORE PUSH1 0x64 SWAP1 REVERT JUMPDEST CALLVALUE PUSH2 0x15A JUMPI PUSH1 0x0 CALLDATASIZE PUSH1 0x3 NOT ADD SLT PUSH2 0x15A JUMPI PUSH2 0xF47 PUSH2 0x126D JUMP JUMPDEST CALLER PUSH1 0x0 MSTORE PUSH1 0x20 PUSH1 0x5 DUP2 MSTORE PUSH1 0x40 PUSH1 0x0 KECCAK256 SLOAD SWAP1 DUP2 ISZERO PUSH2 0x1056 JUMPI CALLER PUSH1 0x0 DUP2 DUP2 MSTORE PUSH1 0x5 DUP4 MSTORE PUSH1 0x40 DUP1 DUP3 KECCAK256 DUP3 SWAP1 SSTORE MLOAD PUSH4 0xA9059CBB PUSH1 0xE0 SHL DUP2 MSTORE PUSH1 0x4 DUP2 ADD SWAP3 SWAP1 SWAP3 MSTORE PUSH1 0x24 DUP3 ADD DUP5 SWAP1 MSTORE DUP3 SWAP1 DUP3 SWAP1 PUSH1 0x44 SWAP1 DUP3 SWAP1 PUSH1 0x1 PUSH1 0x1 PUSH1 0xA0 SHL SUB PUSH32 0x0 AND GAS CALL SWAP1 DUP2 ISZERO PUSH2 0x8CB JUMPI PUSH1 0x0 SWAP2 PUSH2 0x1039 JUMPI JUMPDEST POP ISZERO PUSH2 0x1005 JUMPI PUSH32 0xEE503BEE2BB6A87E57BC57DB795F98137327401A0E7B7CE42E37926CC1A9CA4D SWAP1 PUSH1 0x40 MLOAD SWAP3 DUP4 MSTORE CALLER SWAP3 LOG2 PUSH1 0x1 DUP1 SSTORE STOP JUMPDEST PUSH1 0x64 SWAP1 PUSH1 0x40 MLOAD SWAP1 PUSH3 0x461BCD PUSH1 0xE5 SHL DUP3 MSTORE PUSH1 0x4 DUP3 ADD MSTORE PUSH1 0xD PUSH1 0x24 DUP3 ADD MSTORE PUSH13 0x15DA5D1A191C985DC819985A5B PUSH1 0x9A SHL PUSH1 0x44 DUP3 ADD MSTORE REVERT JUMPDEST PUSH2 0x1050 SWAP2 POP DUP3 RETURNDATASIZE DUP5 GT PUSH2 0x8C4 JUMPI PUSH2 0x8B6 DUP2 DUP4 PUSH2 0x11BD JUMP JUMPDEST DUP4 PUSH2 0xFCE JUMP JUMPDEST PUSH1 0x64 SWAP1 PUSH1 0x40 MLOAD SWAP1 PUSH3 0x461BCD PUSH1 0xE5 SHL DUP3 MSTORE PUSH1 0x4 DUP3 ADD MSTORE PUSH1 0xA PUSH1 0x24 DUP3 ADD MSTORE PUSH10 0x4E6F2062616C616E6365 PUSH1 0xB0 SHL PUSH1 0x44 DUP3 ADD MSTORE REVERT JUMPDEST CALLVALUE PUSH2 0x15A JUMPI PUSH1 0x0 CALLDATASIZE PUSH1 0x3 NOT ADD SLT PUSH2 0x15A JUMPI PUSH1 0x20 PUSH1 0x2 SLOAD PUSH1 0x40 MLOAD SWAP1 DUP2 MSTORE RETURN JUMPDEST CALLVALUE PUSH2 0x15A JUMPI PUSH1 0x20 CALLDATASIZE PUSH1 0x3 NOT ADD SLT PUSH2 0x15A JUMPI PUSH1 0x4 CALLDATALOAD PUSH2 0x10C1 PUSH2 0x121F JUMP JUMPDEST PUSH2 0x3E8 DUP2 GT PUSH2 0x10CF JUMPI PUSH1 0x2 SSTORE STOP JUMPDEST PUSH1 0x40 MLOAD PUSH3 0x461BCD PUSH1 0xE5 SHL DUP2 MSTORE PUSH1 0x20 PUSH1 0x4 DUP3 ADD MSTORE PUSH1 0xC PUSH1 0x24 DUP3 ADD MSTORE PUSH12 0x8CCACA40E8DEDE40D0D2CED PUSH1 0xA3 SHL PUSH1 0x44 DUP3 ADD MSTORE PUSH1 0x64 SWAP1 REVERT JUMPDEST CALLVALUE PUSH2 0x15A JUMPI PUSH1 0x0 CALLDATASIZE PUSH1 0x3 NOT ADD SLT PUSH2 0x15A JUMPI PUSH1 0x40 MLOAD PUSH32 0x0 PUSH1 0x1 PUSH1 0x1 PUSH1 0xA0 SHL SUB AND DUP2 MSTORE PUSH1 0x20 SWAP1 RETURN JUMPDEST CALLVALUE PUSH2 0x15A JUMPI PUSH1 0x20 CALLDATASIZE PUSH1 0x3 NOT ADD SLT PUSH2 0x15A JUMPI PUSH1 0x4 CALLDATALOAD PUSH1 0x1 PUSH1 0x1 PUSH1 0xA0 SHL SUB DUP2 AND SWAP2 SWAP1 DUP3 SWAP1 SUB PUSH2 0x15A JUMPI PUSH1 0x20 SWAP2 PUSH1 0x0 MSTORE PUSH1 0x5 DUP3 MSTORE PUSH1 0x40 PUSH1 0x0 KECCAK256 SLOAD DUP2 MSTORE RETURN JUMPDEST SWAP1 PUSH1 0x1 DUP3 DUP2 SHR SWAP3 AND DUP1 ISZERO PUSH2 0x11B3 JUMPI JUMPDEST PUSH1 0x20 DUP4 LT EQ PUSH2 0x119D JUMPI JUMP JUMPDEST PUSH4 0x4E487B71 PUSH1 0xE0 SHL PUSH1 0x0 MSTORE PUSH1 0x22 PUSH1 0x4 MSTORE PUSH1 0x24 PUSH1 0x0 REVERT JUMPDEST SWAP2 PUSH1 0x7F AND SWAP2 PUSH2 0x1192 JUMP JUMPDEST SWAP1 PUSH1 0x1F DUP1 NOT SWAP2 ADD AND DUP2 ADD SWAP1 DUP2 LT PUSH8 0xFFFFFFFFFFFFFFFF DUP3 GT OR PUSH2 0x20B JUMPI PUSH1 0x40 MSTORE JUMP JUMPDEST SWAP2 SWAP1 DUP3 MLOAD SWAP3 DUP4 DUP3 MSTORE PUSH1 0x0 JUMPDEST DUP5 DUP2 LT PUSH2 0x120B JUMPI POP POP DUP3 PUSH1 0x0 PUSH1 0x20 DUP1 SWAP5 SWAP6 DUP5 ADD ADD MSTORE PUSH1 0x1F DUP1 NOT SWAP2 ADD AND ADD ADD SWAP1 JUMP JUMPDEST PUSH1 0x20 DUP2 DUP4 ADD DUP2 ADD MLOAD DUP5 DUP4 ADD DUP3 ADD MSTORE ADD PUSH2 0x11EA JUMP JUMPDEST PUSH1 0x0 SLOAD PUSH1 0x1 PUSH1 0x1 PUSH1 0xA0 SHL SUB AND CALLER SUB PUSH2 0x1233 JUMPI JUMP JUMPDEST PUSH1 0x40 MLOAD PUSH4 0x118CDAA7 PUSH1 0xE0 SHL DUP2 MSTORE CALLER PUSH1 0x4 DUP3 ADD MSTORE PUSH1 0x24 SWAP1 REVERT JUMPDEST DUP2 DUP2 MUL SWAP3 SWAP2 DUP2 ISZERO SWAP2 DUP5 DIV EQ OR ISZERO PUSH2 0xE12 JUMPI JUMP JUMPDEST PUSH1 0x0 NOT DUP2 EQ PUSH2 0xE12 JUMPI PUSH1 0x1 ADD SWAP1 JUMP JUMPDEST PUSH1 0x2 PUSH1 0x1 SLOAD EQ PUSH2 0x127E JUMPI PUSH1 0x2 PUSH1 0x1 SSTORE JUMP JUMPDEST PUSH1 0x40 MLOAD PUSH4 0x3EE5AEB5 PUSH1 0xE0 SHL DUP2 MSTORE PUSH1 0x4 SWAP1 REVERT JUMPDEST DUP1 SLOAD DUP3 LT ISZERO PUSH2 0x12A8 JUMPI PUSH1 0x0 MSTORE PUSH1 0x20 PUSH1 0x0 KECCAK256 ADD SWAP1 PUSH1 0x0 SWAP1 JUMP JUMPDEST PUSH4 0x4E487B71 PUSH1 0xE0 SHL PUSH1 0x0 MSTORE PUSH1 0x32 PUSH1 0x4 MSTORE PUSH1 0x24 PUSH1 0x0 REVERT JUMPDEST ISZERO PUSH2 0x12C5 JUMPI JUMP JUMPDEST PUSH1 0x40 MLOAD PUSH3 0x461BCD PUSH1 0xE5 SHL DUP2 MSTORE PUSH1 0x20 PUSH1 0x4 DUP3 ADD MSTORE PUSH1 0xA PUSH1 0x24 DUP3 ADD MSTORE PUSH10 0x2737BA1036B2B6B132B9 PUSH1 0xB1 SHL PUSH1 0x44 DUP3 ADD MSTORE PUSH1 0x64 SWAP1 REVERT JUMPDEST SWAP1 DUP2 PUSH1 0x20 SWAP2 SUB SLT PUSH2 0x15A JUMPI MLOAD DUP1 ISZERO ISZERO DUP2 SUB PUSH2 0x15A JUMPI SWAP1 JUMP JUMPDEST SWAP2 SWAP1 DUP3 ADD DUP1 SWAP3 GT PUSH2 0xE12 JUMPI JUMP JUMPDEST SWAP2 SWAP1 DUP3 SUB SWAP2 DUP3 GT PUSH2 0xE12 JUMPI JUMP JUMPDEST PUSH1 0x0 SWAP1 DUP2 MSTORE PUSH1 0x20 PUSH1 0x4 DUP2 MSTORE PUSH1 0x40 DUP1 DUP4 KECCAK256 DUP4 SWAP2 PUSH1 0x9 DUP3 ADD SWAP3 PUSH1 0xB DUP5 SLOAD SWAP4 ADD SWAP1 JUMPDEST DUP4 DUP2 LT PUSH2 0x137C JUMPI POP POP POP ISZERO PUSH2 0x1368 JUMPI DUP3 MSTORE SWAP1 KECCAK256 SLOAD PUSH1 0x1 PUSH1 0x1 PUSH1 0xA0 SHL SUB AND SWAP1 JUMP JUMPDEST PUSH4 0x4E487B71 PUSH1 0xE0 SHL DUP4 MSTORE PUSH1 0x32 PUSH1 0x4 MSTORE PUSH1 0x24 DUP4 REVERT JUMPDEST PUSH2 0x1386 DUP2 DUP7 PUSH2 0x1290 JUMP JUMPDEST PUSH1 0x1 DUP1 PUSH1 0xA0 SHL SUB DUP1 SWAP3 SLOAD PUSH1 0x3 SWAP3 DUP4 SHL SHR AND DUP10 MSTORE DUP4 DUP9 MSTORE PUSH1 0xFF DUP6 DUP11 KECCAK256 SLOAD AND ISZERO PUSH2 0x13B8 JUMPI POP POP PUSH2 0x13B3 SWAP1 PUSH2 0x125E JUMP JUMPDEST PUSH2 0x1348 JUMP JUMPDEST SWAP7 POP SWAP7 POP SWAP3 POP POP POP PUSH2 0x13C9 SWAP2 PUSH2 0x1290 JUMP JUMPDEST SWAP1 SLOAD SWAP2 SHL SHR AND SWAP1 JUMP INVALID LOG2 PUSH5 0x6970667358 0x22 SLT KECCAK256 CODESIZE 0x1E LT SHR BLOCKHASH SWAP7 0xE8 PUSH3 0x67392 0xE1 0xCA 0x22 BALANCE PUSH26 0xC5A0FF27911E2CEDEC13187E8655A59F64736F6C634300081400 CALLER "},"methodIdentifiers":{"BPS_DENOMINATOR()":"e1a45218","createGroup(string,uint256,uint256,uint256,uint256,uint256)":"e8b27a53","depositContribution(uint256)":"830125ba","groupCount()":"8f23b326","groups(uint256)":"96324bd4","joinGroup(uint256)":"eed02e4b","owner()":"8da5cb5b","placeBid(uint256,uint256)":"57c90de5","platformFeeBps()":"22dcd13e","renounceOwnership()":"715018a6","setPlatformFee(uint256)":"12e8e2c3","settleAuction(uint256)":"2e993611","transferOwnership(address)":"f2fde38b","usdcToken()":"11eac855","userBalance(address)":"0103c92b","withdrawDividends()":"2e92abdd"}}}}}