{"contracts/ROSCA.sol":{"ROSCA":{"abi":[{"inputs":[{"internalType":"address","name":"_usdcAddress","type":"address"}],"stateMutability":"nonpayable","type":"constructor"},{"inputs":[{"internalType":"address","name":"owner","type":"address"}],"name":"OwnableInvalidOwner","type":"error"},{"inputs":[{"internalType":"address","name":"account","type":"address"}],"name":"OwnableUnauthorizedAccount","type":"error"},{"inputs":[],"name":"ReentrancyGuardReentrantCall","type":"error"},{"anonymous":false,"inputs":[{"indexed":true,"internalType":"uint256","name":"groupId","type":"uint256"},{"indexed":false,"internalType":"address","name":"winner","type":"address"},{"indexed":false,"internalType":"uint256","name":"payout","type":"uint256"},{"indexed":false,"internalType":"uint256","name":"dividendPerMember","type":"uint256"}],"name":"AuctionWinnerSelected","type":"event"},{"anonymous":false,"inputs":[{"indexed":true,"internalType":"uint256","name":"groupId","type":"uint256"},{"indexed":true,"internalType":"address","name":"bidder","type":"address"},{"indexed":false,"internalType":"uint256","name":"discount","type":"uint256"}],"name":"BidPlaced","type":"event"},{"anonymous":false,"inputs":[{"indexed":true,"internalType":"uint256","name":"groupId","type":"uint256"},{"indexed":true,"internalType":"address","name":"member","type":"address"},{"indexed":false,"internalType":"uint256","name":"amount","type":"uint256"}],"name":"ContributionDeposited","type":"event"},{"anonymous":false,"inputs":[{"indexed":true,"internalType":"address","name":"member","type":"address"},{"indexed":false,"internalType":"uint256","name":"amount","type":"uint256"}],"name":"DividendWithdrawn","type":"event"},{"anonymous":false,"inputs":[{"indexed":true,"internalType":"uint256","name":"groupId","type":"uint256"},{"indexed":false,"internalType":"string","name":"name","type":"string"}],"name":"GroupStarted","type":"event"},{"anonymous":false,"inputs":[{"indexed":true,"internalType":"address","name":"previousOwner","type":"address"},{"indexed":true,"internalType":"address","name":"newOwner","type":"address"}],"name":"OwnershipTransferred","type":"event"},{"inputs":[],"name":"BPS_DENOMINATOR","outputs":[{"internalType":"uint256","name":"","type":"uint256"}],"stateMutability":"view","type":"function"},{"inputs":[{"internalType":"string","name":"_name","type":"string"},{"internalType":"uint256","name":"_contributionAmount","type":"uint256"},{"internalType":"uint256","name":"_maxMembers","type":"uint256"},{"internalType":"uint256","name":"_cycleDuration","type":"uint256"},{"internalType":"uint256","name":"_auctionDuration","type":"uint256"},{"internalType":"uint256","name":"_minDefaultDiscount","type":"uint256"}],"name":"createGroup","outputs":[],"stateMutability":"nonpayable","type":"function"},{"inputs":[{"internalType":"uint256","name":"_groupId","type":"uint256"}],"name":"depositContribution","outputs":[],"stateMutability":"nonpayable","type":"function"},{"inputs":[],"name":"groupCount","outputs":[{"internalType":"uint256","name":"","type":"uint256"}],"stateMutability":"view","type":"function"},{"inputs":[{"internalType":"uint256","name":"","type":"uint256"}],"name":"groups","outputs":[{"internalType":"string","name":"name","type":"string"},{"internalType":"uint256","name":"contributionAmount","type":"uint256"},{"internalType":"uint256","name":"maxMembers","type":"uint256"},{"internalType":"uint256","name":"cycleDuration","type":"uint256"},{"internalType":"uint256","name":"auctionDuration","type":"uint256"},{"internalType":"uint256","name":"minDefaultDiscount","type":"uint256"},{"internalType":"uint256","name":"currentCycle","type":"uint256"},{"internalType":"uint256","name":"cycleStartTime","type":"uint256"},{"internalType":"uint256","name":"totalEscrow","type":"uint256"},{"internalType":"address","name":"creator","type":"address"},{"internalType":"address","name":"highestBidder","type":"address"},{"internalType":"uint256","name":"highestDiscount","type":"uint256"},{"internalType":"bool","name":"auctionSettled","type":"bool"},{"internalType":"bool","name":"isActive","type":"bool"}],"stateMutability":"view","type":"function"},{"inputs":[{"internalType":"uint256","name":"_groupId","type":"uint256"},{"internalType":"address","name":"_user","type":"address"}],"name":"isMemberOf","outputs":[{"internalType":"bool","name":"","type":"bool"}],"stateMutability":"view","type":"function"},{"inputs":[{"internalType":"uint256","name":"_groupId","type":"uint256"}],"name":"joinGroup","outputs":[],"stateMutability":"nonpayable","type":"function"},{"inputs":[],"name":"owner","outputs":[{"internalType":"address","name":"","type":"address"}],"stateMutability":"view","type":"function"},{"inputs":[{"internalType":"uint256","name":"_groupId","type":"uint256"},{"internalType":"uint256","name":"_discountAmount","type":"uint256"}],"name":"placeBid","outputs":[],"stateMutability":"nonpayable","type":"function"},{"inputs":[],"name":"platformFeeBps","outputs":[{"internalType":"uint256","name":"","type":"uint256"}],"stateMutability":"view","type":"function"},{"inputs":[],"name":"renounceOwnership","outputs":[],"stateMutability":"nonpayable","type":"function"},{"inputs":[{"internalType":"uint256","name":"_newFeeBps","type":"uint256"}],"name":"setPlatformFee","outputs":[],"stateMutability":"nonpayable","type":"function"},{"inputs":[{"internalType":"uint256","name":"_groupId","type":"uint256"}],"name":"settleAuction","outputs":[],"stateMutability":"nonpayable","type":"function"},{"inputs":[{"internalType":"address","name":"newOwner","type":"address"}],"name":"transferOwnership","outputs":[],"stateMutability":"nonpayable","type":"function"},{"inputs":[],"name":"usdcToken","outputs":[{"internalType":"contract IERC20","name":"","type":"address"}],"stateMutability":"view","type":"function"},{"inputs":[{"internalType":"address","name":"","type":"address"}],"name":"userBalance","outputs":[{"internalType":"uint256","name":"","type":"uint256"}],"stateMutability":"view","type":"function"},{"inputs":[],"name":"withdrawDividends","outputs":[],"stateMutability":"nonpayable","type":"function"}],"evm":{"bytecode":{"linkReferences":{},"object":"60a0346100e657601f6115dc38819003918201601f19168301916001600160401b038311848410176100eb578084926020946040528339810103126100e657516001600160a01b0390818116908190036100e65733156100cd576000543360018060a01b0319821617600055604051923391167f8be0079c531659141344cd1fd0a4f28419497f9722a3daafe3b4186f6b6457e0600080a36001805560646002556080526114da908161010282396080518181816107ff01528181610c950152818161101e015261119a0152f35b604051631e4fbdf760e01b815260006004820152602490fd5b600080fd5b634e487b7160e01b600052604160045260246000fdfe608080604052600436101561001357600080fd5b60003560e01c9081630103c92b146111c95750806311eac8551461118457806312e8e2c31461112657806322dcd13e146111085780632e92abdd14610faf5780632e99361114610b9d57806357c90de5146109e5578063715018a61461098c578063788df6b714610937578063830125ba1461076e5780638da5cb5b146107455780638f23b3261461072757806396324bd4146105b4578063e1a4521814610597578063e8b27a5314610242578063eed02e4b146101685763f2fde38b146100da57600080fd5b34610163576020366003190112610163576100f36111ff565b6100fb6112b1565b6001600160a01b0390811690811561014a57600054826001600160601b0360a01b821617600055167f8be0079c531659141344cd1fd0a4f28419497f9722a3daafe3b4186f6b6457e0600080a3005b604051631e4fbdf760e01b815260006004820152602490fd5b600080fd5b34610163576020806003193601126101635761018261136d565b60043560005260048152604060002090600a82019182546002820154111561021757600b01913360005282825260ff604060002054166101e5576101c790339061132d565b33600052526040600020600160ff1982541617905560018055600080f35b60405162461bcd60e51b815260048101839052600a60248201526920b63932b0b23c9034b760b11b6044820152606490fd5b60405162461bcd60e51b81526004808201849052602482015263119d5b1b60e21b6044820152606490fd5b346101635760c03660031901126101635767ffffffffffffffff6004358181116101635736602382011215610163578060040135908282116105815760405191601f1990610298601f820183166020018561124f565b8084526024923684838301011161016357816000928560209301838801378501015281356064356084359160a435936102cf61136d565b60026044351061054d5782841015610516576102ed604435836112dd565b8510156104df576102ff6003546112f0565b80600355600052600460205260406000209587519889116104cb57506103258654611215565b601f8111610483575b50602090601f891160011461041e57509680600b9798600091610413575b508160011b916000199060031b1c19161785555b600185015560443560028501556003840155600483015560058201554260078201556010810161010061ff001982541617905560098101336001600160601b0360a01b8254161790556103b633600a830161132d565b33600052016020526040600020600160ff198254161790557f54de87d9be1b1f358f1f48a16c248c483d4991bc43d54bf3962b247eae8a47a061040a60035492604051918291602083526020830190611271565b0390a260018055005b90508801518961034c565b8816908660005260206000209160005b81811061046b5750918991600b999a60019410610452575b5050811b018555610360565b8a015160001960f88460031b161c191690558980610446565b9192602060018192868d01518155019401920161042e565b866000526020600020601f8a0160051c81019160208b106104c1575b601f0160051c01905b8181106104b5575061032e565b600081556001016104a8565b909150819061049f565b634e487b7160e01b60009081526041600452fd5b60405162461bcd60e51b8152602060048201526010818801526f125b9d985b1a5908191a5cd8dbdd5b9d60821b6044820152606490fd5b60405162461bcd60e51b8152602060048201526010818801526f41756374696f6e20746f6f206c6f6e6760801b6044820152606490fd5b60405162461bcd60e51b815260206004820152600d818801526c4d696e2032206d656d6265727360981b6044820152606490fd5b634e487b7160e01b600052604160045260246000fd5b346101635760003660031901126101635760206040516127108152f35b346101635760208060031936011261016357600435600052600481526040600020906040516000818454916105e883611215565b80835260019386858216918260001461070d5750506001146106d0575b5003610611908361124f565b830154926002810154906003810154600482015460058301546006840154600785015490600886015492600160a01b60019003948560098901541695600e8901541696600f8901549860100154996040519d8e9d8e9d8e6101c0908181520161067991611271565b9d015260408d015260608c015260808b015260a08a015260c089015260e088015261010087015261012086015261014085015261016084015260ff8116151561018084015260081c60ff1615156101a08301520390f35b859150866000528160002090846000925b8284106106f45750505082010186610605565b80548489018601528795508894909301928691016106e1565b9150925060ff191682840152151560051b82010186610605565b34610163576000366003190112610163576020600354604051908152f35b34610163576000366003190112610163576000546040516001600160a01b039091168152602090f35b34610163576020806003193601126101635760043561078b61136d565b806000526004825260406000209133600052600b830181526107b460ff60406000205416611390565b600d83013360005280825260ff60406000205416610903576001840180546040516323b872dd60e01b81523360048201523060248201526044810191909152909190838160648160007f00000000000000000000000000000000000000000000000000000000000000006001600160a01b03165af19081156108f7576000916108ca575b5015610899577f3b595e267f7dc5dd7960dca6ca4497e7d37cf5594fdb7fb48a92c9988d9bf32692916008913360005283526040600020600160ff198254161790555494016108888582546113e1565b90556040519384523393a360018055005b60405162461bcd60e51b81526004810184905260096024820152681554d110c819985a5b60ba1b6044820152606490fd5b6108ea9150843d86116108f0575b6108e2818361124f565b8101906113c9565b86610838565b503d6108d8565b6040513d6000823e3d90fd5b60405162461bcd60e51b815260048101839052600c60248201526b105b1c9958591e481c185a5960a21b6044820152606490fd5b34610163576040366003190112610163576024356001600160a01b03811690819003610163576004356000526004602052600b60406000200190600052602052602060ff604060002054166040519015158152f35b34610163576000366003190112610163576109a56112b1565b600080546001600160a01b0319811682556001600160a01b03167f8be0079c531659141344cd1fd0a4f28419497f9722a3daafe3b4186f6b6457e08280a3005b34610163576040366003190112610163576004356024359080600052602060048152604060002033600052600b81018252610a2760ff60406000205416611390565b33600052600c8101825260ff60406000205416610b5f57610a5160078201546004830154906113e1565b421015610b2957600f81018054851115610af05760058201548510610ab6577f0e54eff26401bf69b81b26f60bd85ef47f5d85275c1d268d84f68d6897431c47929185600e925501336001600160601b0360a01b8254161790556040519384523393a3005b60405162461bcd60e51b815260048101849052601260248201527110995b1bddc81b5a5b88191a5cd8dbdd5b9d60721b6044820152606490fd5b60405162461bcd60e51b8152600481018490526011602482015270125b98dc99585cd948191a5cd8dbdd5b9d607a1b6044820152606490fd5b60405162461bcd60e51b815260048101839052600e60248201526d105d58dd1a5bdb8818db1bdcd95960921b6044820152606490fd5b60405162461bcd60e51b8152600481018390526016602482015275416c726561647920776f6e2070726576696f75736c7960501b6044820152606490fd5b34610163576020806003193601126101635760043590610bbb61136d565b8160005260048152604060002091610bdc60078401546004850154906113e1565b4210610f7857601083019260ff845416610f495760088101546001938483015495600a840192835490610c0f828a6112dd565b11610f0c57600e8501546001600160a01b039190821680610ef95750610c66610c37886113fb565b91610c616005890154915b610c5b612710610c54600254866112dd565b04846113ee565b9c6112dd565b6113ee565b60405163a9059cbb60e01b81526001600160a01b038316600482015260248101829052909990858160448160007f000000000000000000000000000000000000000000000000000000000000000089165af19081156108f757600091610edc575b5015610ea95785546000198101908111610e93578015610e7d5789919493940495816000905b610e03575b50505082600691169586600052600c8101855260406000209260ff19938a85825416179055898482541617905501610d2a81546112f0565b9055856000526004835286604060002092426007850155600e84016001600160601b0360a01b81541690556000600f85015560006008850155601084018381541690556000600d600a86019501925b610dbb575b5088887f81e5a25d0dd0f1e611e25aae7ef5cf1848ef35f6e90c7c008cdc30b1d07c74e160608a8a8f8b6040519384528301526040820152a28055005b8454811015610dfe5790610df58282610dd78d979695896112ff565b90549060031b1c1660005283885260406000208581541690556112f0565b90919293610d79565b610d7e565b858296959654821015610e745790610e3b91610e1f82856112ff565b90549082600392818a1692841b1c1603610e44575b50506112f0565b82959495610ced565b610e4e83866112ff565b9054911b1c16600052600588526040600020610e6b8a82546113e1565b9055858e610e34565b50949394610cf2565b634e487b7160e01b600052601260045260246000fd5b634e487b7160e01b600052601160045260246000fd5b60405162461bcd60e51b815260048101869052600b60248201526a14185e5bdd5d0819985a5b60aa1b6044820152606490fd5b610ef39150863d88116108f0576108e2818361124f565b8b610cc7565b610c669091610c61600f89015491610c42565b60405162461bcd60e51b8152600481018490526015602482015274436f6e747269627574696f6e732070656e64696e6760581b6044820152606490fd5b60405162461bcd60e51b815260048101849052600760248201526614d95d1d1b195960ca1b6044820152606490fd5b60405162461bcd60e51b815260048101839052600f60248201526e41756374696f6e206f6e676f696e6760881b6044820152606490fd5b3461016357600036600319011261016357610fc861136d565b336000526020600581526040600020549081156110d7573360008181526005835260408082208290555163a9059cbb60e01b81526004810192909252602482018490528290829060449082906001600160a01b037f0000000000000000000000000000000000000000000000000000000000000000165af19081156108f7576000916110ba575b5015611086577fee503bee2bb6a87e57bc57db795f98137327401a0e7b7ce42e37926cc1a9ca4d906040519283523392a260018055005b6064906040519062461bcd60e51b82526004820152600d60248201526c15da5d1a191c985dc819985a5b609a1b6044820152fd5b6110d19150823d84116108f0576108e2818361124f565b8361104f565b6064906040519062461bcd60e51b82526004820152600a6024820152694e6f2062616c616e636560b01b6044820152fd5b34610163576000366003190112610163576020600254604051908152f35b34610163576020366003190112610163576004356111426112b1565b6103e8811161115057600255005b60405162461bcd60e51b815260206004820152600c60248201526b08ccaca40e8dede40d0d2ced60a31b6044820152606490fd5b34610163576000366003190112610163576040517f00000000000000000000000000000000000000000000000000000000000000006001600160a01b03168152602090f35b34610163576020366003190112610163576020906001600160a01b036111ed6111ff565b16600052600582526040600020548152f35b600435906001600160a01b038216820361016357565b90600182811c92168015611245575b602083101461122f57565b634e487b7160e01b600052602260045260246000fd5b91607f1691611224565b90601f8019910116810190811067ffffffffffffffff82111761058157604052565b919082519283825260005b84811061129d575050826000602080949584010152601f8019910116010190565b60208183018101518483018201520161127c565b6000546001600160a01b031633036112c557565b60405163118cdaa760e01b8152336004820152602490fd5b81810292918115918404141715610e9357565b6000198114610e935760010190565b80548210156113175760005260206000200190600090565b634e487b7160e01b600052603260045260246000fd5b8054680100000000000000008110156105815761134f916001820181556112ff565b819291549060031b9160018060a01b03809116831b921b1916179055565b60026001541461137e576002600155565b604051633ee5aeb560e01b8152600490fd5b1561139757565b60405162461bcd60e51b815260206004820152600a6024820152692737ba1036b2b6b132b960b11b6044820152606490fd5b90816020910312610163575180151581036101635790565b91908201809211610e9357565b91908203918211610e9357565b600090815260206004815260408083208391600a820192600c84549301905b83811061144e575050501561143a5782529020546001600160a01b031690565b634e487b7160e01b83526032600452602483fd5b61145881866112ff565b60018060a01b03809254600392831b1c16895283885260ff858a2054161561148a575050611485906112f0565b61141a565b965096509250505061149b916112ff565b9054911b1c169056fea2646970667358221220d76c78068a1fdec9833a1d8d5f7bafc93e47a04ed3a21c3b0d42524f7132bb6d64736f6c63430008140033","opcodes":"PUSH1 0xA0 CALLVALUE PUSH2 0xE6 JUMPI PUSH1 0x1F PUSH2 0x15DC CODESIZE DUP2 SWAP1 SUB SWAP2 DUP3 ADD PUSH1 0x1F NOT AND DUP4 ADD SWAP2 PUSH1 0x1 PUSH1 0x1 PUSH1 0x40 SHL SUB DUP4 GT DUP5 DUP5 LT OR PUSH2 0xEB JUMPI DUP1 DUP5 SWAP3 PUSH1 0x20 SWAP5 PUSH1 0x40 MSTORE DUP4 CODECOPY DUP2 ADD SUB SLT PUSH2 0xE6 JUMPI MLOAD PUSH1 0x1 PUSH1 0x1 PUSH1 0xA0 SHL SUB SWAP1 DUP2 DUP2 AND SWAP1 DUP2 SWAP1 SUB PUSH2 0xE6 JUMPI CALLER ISZERO PUSH2 0xCD JUMPI PUSH1 0x0 SLOAD CALLER PUSH1 0x1 DUP1 PUSH1 0xA0 SHL SUB NOT DUP3 AND OR PUSH1 0x0 SSTORE PUSH1 0x40 MLOAD SWAP3 CALLER SWAP2 AND PUSH32 0x8BE0079C531659141344CD1FD0A4F28419497F9722A3DAAFE3B4186F6B6457E0 PUSH1 0x0 DUP1 LOG3 PUSH1 0x1 DUP1 SSTORE PUSH1 0x64 PUSH1 0x2 SSTORE PUSH1 0x80 MSTORE PUSH2 0x14DA SWAP1 DUP2 PUSH2 0x102 DUP3 CODECOPY PUSH1 0x80 MLOAD DUP2 DUP2 DUP2 PUSH2 0x7FF ADD MSTORE DUP2 DUP2 PUSH2 0xC95 ADD MSTORE DUP2 DUP2 PUSH2 0x101E ADD MSTORE PUSH2 0x119A ADD MSTORE RETURN JUMPDEST PUSH1 0x40 MLOAD PUSH4 0x1E4FBDF7 PUSH1 0xE0 SHL DUP2 MSTORE PUSH1 0x0 PUSH1 0x4 DUP3 ADD MSTORE PUSH1 0x24 SWAP1 REVERT JUMPDEST PUSH1 0x0 DUP1 REVERT JUMPDEST PUSH4 0x4E487B71 PUSH1 0xE0 SHL PUSH1 0x0 MSTORE PUSH1 0x41 PUSH1 0x4 MSTORE PUSH1 0x24 PUSH1 0x0 REVERT INVALID PUSH1 0x80 DUP1 PUSH1 0x40 MSTORE PUSH1 0x4 CALLDATASIZE LT ISZERO PUSH2 0x13 JUMPI PUSH1 0x0 DUP1 REVERT JUMPDEST PUSH1 0x0 CALLDATALOAD PUSH1 0xE0 SHR SWAP1 DUP2 PUSH4 0x103C92B EQ PUSH2 0x11C9 JUMPI POP DUP1 PUSH4 0x11EAC855 EQ PUSH2 0x1184 JUMPI DUP1 PUSH4 0x12E8E2C3 EQ PUSH2 0x1126 JUMPI DUP1 PUSH4 0x22DCD13E EQ PUSH2 0x1108 JUMPI DUP1 PUSH4 0x2E92ABDD EQ PUSH2 0xFAF JUMPI DUP1 PUSH4 0x2E993611 EQ PUSH2 0xB9D JUMPI DUP1 PUSH4 0x57C90DE5 EQ PUSH2 0x9E5 JUMPI DUP1 PUSH4 0x715018A6 EQ PUSH2 0x98C JUMPI DUP1 PUSH4 0x788DF6B7 EQ PUSH2 0x937 JUMPI DUP1 PUSH4 0x830125BA EQ PUSH2 0x76E JUMPI DUP1 PUSH4 0x8DA5CB5B EQ PUSH2 0x745 JUMPI DUP1 PUSH4 0x8F23B326 EQ PUSH2 0x727 JUMPI DUP1 PUSH4 0x96324BD4 EQ PUSH2 0x5B4 JUMPI DUP1 PUSH4 0xE1A45218 EQ PUSH2 0x597 JUMPI DUP1 PUSH4 0xE8B27A53 EQ PUSH2 0x242 JUMPI DUP1 PUSH4 0xEED02E4B EQ PUSH2 0x168 JUMPI PUSH4 0xF2FDE38B EQ PUSH2 0xDA JUMPI PUSH1 0x0 DUP1 REVERT JUMPDEST CALLVALUE PUSH2 0x163 JUMPI PUSH1 0x20 CALLDATASIZE PUSH1 0x3 NOT ADD SLT PUSH2 0x163 JUMPI PUSH2 0xF3 PUSH2 0x11FF JUMP JUMPDEST PUSH2 0xFB PUSH2 0x12B1 JUMP JUMPDEST PUSH1 0x1 PUSH1 0x1 PUSH1 0xA0 SHL SUB SWAP1 DUP2 AND SWAP1 DUP2 ISZERO PUSH2 0x14A JUMPI PUSH1 0x0 SLOAD DUP3 PUSH1 0x1 PUSH1 0x1 PUSH1 0x60 SHL SUB PUSH1 0xA0 SHL DUP3 AND OR PUSH1 0x0 SSTORE AND PUSH32 0x8BE0079C531659141344CD1FD0A4F28419497F9722A3DAAFE3B4186F6B6457E0 PUSH1 0x0 DUP1 LOG3 STOP JUMPDEST PUSH1 0x40 MLOAD PUSH4 0x1E4FBDF7 PUSH1 0xE0 SHL DUP2 MSTORE PUSH1 0x0 PUSH1 0x4 DUP3 ADD MSTORE PUSH1 0x24 SWAP1 REVERT JUMPDEST PUSH1 0x0 DUP1 REVERT JUMPDEST CALLVALUE PUSH2 0x163 JUMPI PUSH1 0x20 DUP1 PUSH1 0x3 NOT CALLDATASIZE ADD SLT PUSH2 0x163 JUMPI PUSH2 0x182 PUSH2 0x136D JUMP JUMPDEST PUSH1 0x4 CALLDATALOAD PUSH1 0x0 MSTORE PUSH1 0x4 DUP2 MSTORE PUSH1 0x40 PUSH1 0x0 KECCAK256 SWAP1 PUSH1 0xA DUP3 ADD SWAP2 DUP3 SLOAD PUSH1 0x2 DUP3 ADD SLOAD GT ISZERO PUSH2 0x217 JUMPI PUSH1 0xB ADD SWAP2 CALLER PUSH1 0x0 MSTORE DUP3 DUP3 MSTORE PUSH1 0xFF PUSH1 0x40 PUSH1 0x0 KECCAK256 SLOAD AND PUSH2 0x1E5 JUMPI PUSH2 0x1C7 SWAP1 CALLER SWAP1 PUSH2 0x132D JUMP JUMPDEST CALLER PUSH1 0x0 MSTORE MSTORE PUSH1 0x40 PUSH1 0x0 KECCAK256 PUSH1 0x1 PUSH1 0xFF NOT DUP3 SLOAD AND OR SWAP1 SSTORE PUSH1 0x1 DUP1 SSTORE PUSH1 0x0 DUP1 RETURN JUMPDEST PUSH1 0x40 MLOAD PUSH3 0x461BCD PUSH1 0xE5 SHL DUP2 MSTORE PUSH1 0x4 DUP2 ADD DUP4 SWAP1 MSTORE PUSH1 0xA PUSH1 0x24 DUP3 ADD MSTORE PUSH10 0x20B63932B0B23C9034B7 PUSH1 0xB1 SHL PUSH1 0x44 DUP3 ADD MSTORE PUSH1 0x64 SWAP1 REVERT JUMPDEST PUSH1 0x40 MLOAD PUSH3 0x461BCD PUSH1 0xE5 SHL DUP2 MSTORE PUSH1 0x4 DUP1 DUP3 ADD DUP5 SWAP1 MSTORE PUSH1 0x24 DUP3 ADD MSTORE PUSH4 0x119D5B1B PUSH1 0xE2 SHL PUSH1 0x44 DUP3 ADD MSTORE PUSH1 0x64 SWAP1 REVERT JUMPDEST CALLVALUE PUSH2 0x163 JUMPI PUSH1 0xC0 CALLDATASIZE PUSH1 0x3 NOT ADD SLT PUSH2 0x163 JUMPI PUSH8 0xFFFFFFFFFFFFFFFF PUSH1 0x4 CALLDATALOAD DUP2 DUP2 GT PUSH2 0x163 JUMPI CALLDATASIZE PUSH1 0x23 DUP3 ADD SLT ISZERO PUSH2 0x163 JUMPI DUP1 PUSH1 0x4 ADD CALLDATALOAD SWAP1 DUP3 DUP3 GT PUSH2 0x581 JUMPI PUSH1 0x40 MLOAD SWAP2 PUSH1 0x1F NOT SWAP1 PUSH2 0x298 PUSH1 0x1F DUP3 ADD DUP4 AND PUSH1 0x20 ADD DUP6 PUSH2 0x124F JUMP JUMPDEST DUP1 DUP5 MSTORE PUSH1 0x24 SWAP3 CALLDATASIZE DUP5 DUP4 DUP4 ADD ADD GT PUSH2 0x163 JUMPI DUP2 PUSH1 0x0 SWAP3 DUP6 PUSH1 0x20 SWAP4 ADD DUP4 DUP9 ADD CALLDATACOPY DUP6 ADD ADD MSTORE DUP2 CALLDATALOAD PUSH1 0x64 CALLDATALOAD PUSH1 0x84 CALLDATALOAD SWAP2 PUSH1 0xA4 CALLDATALOAD SWAP4 PUSH2 0x2CF PUSH2 0x136D JUMP JUMPDEST PUSH1 0x2 PUSH1 0x44 CALLDATALOAD LT PUSH2 0x54D JUMPI DUP3 DUP5 LT ISZERO PUSH2 0x516 JUMPI PUSH2 0x2ED PUSH1 0x44 CALLDATALOAD DUP4 PUSH2 0x12DD JUMP JUMPDEST DUP6 LT ISZERO PUSH2 0x4DF JUMPI PUSH2 0x2FF PUSH1 0x3 SLOAD PUSH2 0x12F0 JUMP JUMPDEST DUP1 PUSH1 0x3 SSTORE PUSH1 0x0 MSTORE PUSH1 0x4 PUSH1 0x20 MSTORE PUSH1 0x40 PUSH1 0x0 KECCAK256 SWAP6 DUP8 MLOAD SWAP9 DUP10 GT PUSH2 0x4CB JUMPI POP PUSH2 0x325 DUP7 SLOAD PUSH2 0x1215 JUMP JUMPDEST PUSH1 0x1F DUP2 GT PUSH2 0x483 JUMPI JUMPDEST POP PUSH1 0x20 SWAP1 PUSH1 0x1F DUP10 GT PUSH1 0x1 EQ PUSH2 0x41E JUMPI POP SWAP7 DUP1 PUSH1 0xB SWAP8 SWAP9 PUSH1 0x0 SWAP2 PUSH2 0x413 JUMPI JUMPDEST POP DUP2 PUSH1 0x1 SHL SWAP2 PUSH1 0x0 NOT SWAP1 PUSH1 0x3 SHL SHR NOT AND OR DUP6 SSTORE JUMPDEST PUSH1 0x1 DUP6 ADD SSTORE PUSH1 0x44 CALLDATALOAD PUSH1 0x2 DUP6 ADD SSTORE PUSH1 0x3 DUP5 ADD SSTORE PUSH1 0x4 DUP4 ADD SSTORE PUSH1 0x5 DUP3 ADD SSTORE TIMESTAMP PUSH1 0x7 DUP3 ADD SSTORE PUSH1 0x10 DUP2 ADD PUSH2 0x100 PUSH2 0xFF00 NOT DUP3 SLOAD AND OR SWAP1 SSTORE PUSH1 0x9 DUP2 ADD CALLER PUSH1 0x1 PUSH1 0x1 PUSH1 0x60 SHL SUB PUSH1 0xA0 SHL DUP3 SLOAD AND OR SWAP1 SSTORE PUSH2 0x3B6 CALLER PUSH1 0xA DUP4 ADD PUSH2 0x132D JUMP JUMPDEST CALLER PUSH1 0x0 MSTORE ADD PUSH1 0x20 MSTORE PUSH1 0x40 PUSH1 0x0 KECCAK256 PUSH1 0x1 PUSH1 0xFF NOT DUP3 SLOAD AND OR SWAP1 SSTORE PUSH32 0x54DE87D9BE1B1F358F1F48A16C248C483D4991BC43D54BF3962B247EAE8A47A0 PUSH2 0x40A PUSH1 0x3 SLOAD SWAP3 PUSH1 0x40 MLOAD SWAP2 DUP3 SWAP2 PUSH1 0x20 DUP4 MSTORE PUSH1 0x20 DUP4 ADD SWAP1 PUSH2 0x1271 JUMP JUMPDEST SUB SWAP1 LOG2 PUSH1 0x1 DUP1 SSTORE STOP JUMPDEST SWAP1 POP DUP9 ADD MLOAD DUP10 PUSH2 0x34C JUMP JUMPDEST DUP9 AND SWAP1 DUP7 PUSH1 0x0 MSTORE PUSH1 0x20 PUSH1 0x0 KECCAK256 SWAP2 PUSH1 0x0 JUMPDEST DUP2 DUP2 LT PUSH2 0x46B JUMPI POP SWAP2 DUP10 SWAP2 PUSH1 0xB SWAP10 SWAP11 PUSH1 0x1 SWAP5 LT PUSH2 0x452 JUMPI JUMPDEST POP POP DUP2 SHL ADD DUP6 SSTORE PUSH2 0x360 JUMP JUMPDEST DUP11 ADD MLOAD PUSH1 0x0 NOT PUSH1 0xF8 DUP5 PUSH1 0x3 SHL AND SHR NOT AND SWAP1 SSTORE DUP10 DUP1 PUSH2 0x446 JUMP JUMPDEST SWAP2 SWAP3 PUSH1 0x20 PUSH1 0x1 DUP2 SWAP3 DUP7 DUP14 ADD MLOAD DUP2 SSTORE ADD SWAP5 ADD SWAP3 ADD PUSH2 0x42E JUMP JUMPDEST DUP7 PUSH1 0x0 MSTORE PUSH1 0x20 PUSH1 0x0 KECCAK256 PUSH1 0x1F DUP11 ADD PUSH1 0x5 SHR DUP2 ADD SWAP2 PUSH1 0x20 DUP12 LT PUSH2 0x4C1 JUMPI JUMPDEST PUSH1 0x1F ADD PUSH1 0x5 SHR ADD SWAP1 JUMPDEST DUP2 DUP2 LT PUSH2 0x4B5 JUMPI POP PUSH2 0x32E JUMP JUMPDEST PUSH1 0x0 DUP2 SSTORE PUSH1 0x1 ADD PUSH2 0x4A8 JUMP JUMPDEST SWAP1 SWAP2 POP DUP2 SWAP1 PUSH2 0x49F JUMP JUMPDEST PUSH4 0x4E487B71 PUSH1 0xE0 SHL PUSH1 0x0 SWAP1 DUP2 MSTORE PUSH1 0x41 PUSH1 0x4 MSTORE REVERT JUMPDEST PUSH1 0x40 MLOAD PUSH3 0x461BCD PUSH1 0xE5 SHL DUP2 MSTORE PUSH1 0x20 PUSH1 0x4 DUP3 ADD MSTORE PUSH1 0x10 DUP2 DUP9 ADD MSTORE PUSH16 0x125B9D985B1A5908191A5CD8DBDD5B9D PUSH1 0x82 SHL PUSH1 0x44 DUP3 ADD MSTORE PUSH1 0x64 SWAP1 REVERT JUMPDEST PUSH1 0x40 MLOAD PUSH3 0x461BCD PUSH1 0xE5 SHL DUP2 MSTORE PUSH1 0x20 PUSH1 0x4 DUP3 ADD MSTORE PUSH1 0x10 DUP2 DUP9 ADD MSTORE PUSH16 0x41756374696F6E20746F6F206C6F6E67 PUSH1 0x80 SHL PUSH1 0x44 DUP3 ADD MSTORE PUSH1 0x64 SWAP1 REVERT JUMPDEST PUSH1 0x40 MLOAD PUSH3 0x461BCD PUSH1 0xE5 SHL DUP2 MSTORE PUSH1 0x20 PUSH1 0x4 DUP3 ADD MSTORE PUSH1 0xD DUP2 DUP9 ADD MSTORE PUSH13 0x4D696E2032206D656D62657273 PUSH1 0x98 SHL PUSH1 0x44 DUP3 ADD MSTORE PUSH1 0x64 SWAP1 REVERT JUMPDEST PUSH4 0x4E487B71 PUSH1 0xE0 SHL PUSH1 0x0 MSTORE PUSH1 0x41 PUSH1 0x4 MSTORE PUSH1 0x24 PUSH1 0x0 REVERT JUMPDEST CALLVALUE PUSH2 0x163 JUMPI PUSH1 0x0 CALLDATASIZE PUSH1 0x3 NOT ADD SLT PUSH2 0x163 JUMPI PUSH1 0x20 PUSH1 0x40 MLOAD PUSH2 0x2710 DUP2 MSTORE RETURN JUMPDEST CALLVALUE PUSH2 0x163 JUMPI PUSH1 0x20 DUP1 PUSH1 0x3 NOT CALLDATASIZE ADD SLT PUSH2 0x163 JUMPI PUSH1 0x4 CALLDATALOAD PUSH1 0x0 MSTORE PUSH1 0x4 DUP2 MSTORE PUSH1 0x40 PUSH1 0x0 KECCAK256 SWAP1 PUSH1 0x40 MLOAD PUSH1 0x0 DUP2 DUP5 SLOAD SWAP2 PUSH2 0x5E8 DUP4 PUSH2 0x1215 JUMP JUMPDEST DUP1 DUP4 MSTORE PUSH1 0x1 SWAP4 DUP7 DUP6 DUP3 AND SWAP2 DUP3 PUSH1 0x0 EQ PUSH2 0x70D JUMPI POP POP PUSH1 0x1 EQ PUSH2 0x6D0 JUMPI JUMPDEST POP SUB PUSH2 0x611 SWAP1 DUP4 PUSH2 0x124F JUMP JUMPDEST DUP4 ADD SLOAD SWAP3 PUSH1 0x2 DUP2 ADD SLOAD SWAP1 PUSH1 0x3 DUP2 ADD SLOAD PUSH1 0x4 DUP3 ADD SLOAD PUSH1 0x5 DUP4 ADD SLOAD PUSH1 0x6 DUP5 ADD SLOAD PUSH1 0x7 DUP6 ADD SLOAD SWAP1 PUSH1 0x8 DUP7 ADD SLOAD SWAP3 PUSH1 0x1 PUSH1 0xA0 SHL PUSH1 0x1 SWAP1 SUB SWAP5 DUP6 PUSH1 0x9 DUP10 ADD SLOAD AND SWAP6 PUSH1 0xE DUP10 ADD SLOAD AND SWAP7 PUSH1 0xF DUP10 ADD SLOAD SWAP9 PUSH1 0x10 ADD SLOAD SWAP10 PUSH1 0x40 MLOAD SWAP14 DUP15 SWAP14 DUP15 SWAP14 DUP15 PUSH2 0x1C0 SWAP1 DUP2 DUP2 MSTORE ADD PUSH2 0x679 SWAP2 PUSH2 0x1271 JUMP JUMPDEST SWAP14 ADD MSTORE PUSH1 0x40 DUP14 ADD MSTORE PUSH1 0x60 DUP13 ADD MSTORE PUSH1 0x80 DUP12 ADD MSTORE PUSH1 0xA0 DUP11 ADD MSTORE PUSH1 0xC0 DUP10 ADD MSTORE PUSH1 0xE0 DUP9 ADD MSTORE PUSH2 0x100 DUP8 ADD MSTORE PUSH2 0x120 DUP7 ADD MSTORE PUSH2 0x140 DUP6 ADD MSTORE PUSH2 0x160 DUP5 ADD MSTORE PUSH1 0xFF DUP2 AND ISZERO ISZERO PUSH2 0x180 DUP5 ADD MSTORE PUSH1 0x8 SHR PUSH1 0xFF AND ISZERO ISZERO PUSH2 0x1A0 DUP4 ADD MSTORE SUB SWAP1 RETURN JUMPDEST DUP6 SWAP2 POP DUP7 PUSH1 0x0 MSTORE DUP2 PUSH1 0x0 KECCAK256 SWAP1 DUP5 PUSH1 0x0 SWAP3 JUMPDEST DUP3 DUP5 LT PUSH2 0x6F4 JUMPI POP POP POP DUP3 ADD ADD DUP7 PUSH2 0x605 JUMP JUMPDEST DUP1 SLOAD DUP5 DUP10 ADD DUP7 ADD MSTORE DUP8 SWAP6 POP DUP9 SWAP5 SWAP1 SWAP4 ADD SWAP3 DUP7 SWAP2 ADD PUSH2 0x6E1 JUMP JUMPDEST SWAP2 POP SWAP3 POP PUSH1 0xFF NOT AND DUP3 DUP5 ADD MSTORE ISZERO ISZERO PUSH1 0x5 SHL DUP3 ADD ADD DUP7 PUSH2 0x605 JUMP JUMPDEST CALLVALUE PUSH2 0x163 JUMPI PUSH1 0x0 CALLDATASIZE PUSH1 0x3 NOT ADD SLT PUSH2 0x163 JUMPI PUSH1 0x20 PUSH1 0x3 SLOAD PUSH1 0x40 MLOAD SWAP1 DUP2 MSTORE RETURN JUMPDEST CALLVALUE PUSH2 0x163 JUMPI PUSH1 0x0 CALLDATASIZE PUSH1 0x3 NOT ADD SLT PUSH2 0x163 JUMPI PUSH1 0x0 SLOAD PUSH1 0x40 MLOAD PUSH1 0x1 PUSH1 0x1 PUSH1 0xA0 SHL SUB SWAP1 SWAP2 AND DUP2 MSTORE PUSH1 0x20 SWAP1 RETURN JUMPDEST CALLVALUE PUSH2 0x163 JUMPI PUSH1 0x20 DUP1 PUSH1 0x3 NOT CALLDATASIZE ADD SLT PUSH2 0x163 JUMPI PUSH1 0x4 CALLDATALOAD PUSH2 0x78B PUSH2 0x136D JUMP JUMPDEST DUP1 PUSH1 0x0 MSTORE PUSH1 0x4 DUP3 MSTORE PUSH1 0x40 PUSH1 0x0 KECCAK256 SWAP2 CALLER PUSH1 0x0 MSTORE PUSH1 0xB DUP4 ADD DUP2 MSTORE PUSH2 0x7B4 PUSH1 0xFF PUSH1 0x40 PUSH1 0x0 KECCAK256 SLOAD AND PUSH2 0x1390 JUMP JUMPDEST PUSH1 0xD DUP4 ADD CALLER PUSH1 0x0 MSTORE DUP1 DUP3 MSTORE PUSH1 0xFF PUSH1 0x40 PUSH1 0x0 KECCAK256 SLOAD AND PUSH2 0x903 JUMPI PUSH1 0x1 DUP5 ADD DUP1 SLOAD PUSH1 0x40 MLOAD PUSH4 0x23B872DD PUSH1 0xE0 SHL DUP2 MSTORE CALLER PUSH1 0x4 DUP3 ADD MSTORE ADDRESS PUSH1 0x24 DUP3 ADD MSTORE PUSH1 0x44 DUP2 ADD SWAP2 SWAP1 SWAP2 MSTORE SWAP1 SWAP2 SWAP1 DUP4 DUP2 PUSH1 0x64 DUP2 PUSH1 0x0 PUSH32 0x0 PUSH1 0x1 PUSH1 0x1 PUSH1 0xA0 SHL SUB AND GAS CALL SWAP1 DUP2 ISZERO PUSH2 0x8F7 JUMPI PUSH1 0x0 SWAP2 PUSH2 0x8CA JUMPI JUMPDEST POP ISZERO PUSH2 0x899 JUMPI PUSH32 0x3B595E267F7DC5DD7960DCA6CA4497E7D37CF5594FDB7FB48A92C9988D9BF326 SWAP3 SWAP2 PUSH1 0x8 SWAP2 CALLER PUSH1 0x0 MSTORE DUP4 MSTORE PUSH1 0x40 PUSH1 0x0 KECCAK256 PUSH1 0x1 PUSH1 0xFF NOT DUP3 SLOAD AND OR SWAP1 SSTORE SLOAD SWAP5 ADD PUSH2 0x888 DUP6 DUP3 SLOAD PUSH2 0x13E1 JUMP JUMPDEST SWAP1 SSTORE PUSH1 0x40 MLOAD SWAP4 DUP5 MSTORE CALLER SWAP4 LOG3 PUSH1 0x1 DUP1 SSTORE STOP JUMPDEST PUSH1 0x40 MLOAD PUSH3 0x461BCD PUSH1 0xE5 SHL DUP2 MSTORE PUSH1 0x4 DUP2 ADD DUP5 SWAP1 MSTORE PUSH1 0x9 PUSH1 0x24 DUP3 ADD MSTORE PUSH9 0x1554D110C819985A5B PUSH1 0xBA SHL PUSH1 0x44 DUP3 ADD MSTORE PUSH1 0x64 SWAP1 REVERT JUMPDEST PUSH2 0x8EA SWAP2 POP DUP5 RETURNDATASIZE DUP7 GT PUSH2 0x8F0 JUMPI JUMPDEST PUSH2 0x8E2 DUP2 DUP4 PUSH2 0x124F JUMP JUMPDEST DUP2 ADD SWAP1 PUSH2 0x13C9 JUMP JUMPDEST DUP7 PUSH2 0x838 JUMP JUMPDEST POP RETURNDATASIZE PUSH2 0x8D8 JUMP JUMPDEST PUSH1 0x40 MLOAD RETURNDATASIZE PUSH1 0x0 DUP3 RETURNDATACOPY RETURNDATASIZE SWAP1 REVERT JUMPDEST PUSH1 0x40 MLOAD PUSH3 0x461BCD PUSH1 0xE5 SHL DUP2 MSTORE PUSH1 0x4 DUP2 ADD DUP4 SWAP1 MSTORE PUSH1 0xC PUSH1 0x24 DUP3 ADD MSTORE PUSH12 0x105B1C9958591E481C185A59 PUSH1 0xA2 SHL PUSH1 0x44 DUP3 ADD MSTORE PUSH1 0x64 SWAP1 REVERT JUMPDEST CALLVALUE PUSH2 0x163 JUMPI PUSH1 0x40 CALLDATASIZE PUSH1 0x3 NOT ADD SLT PUSH2 0x163 JUMPI PUSH1 0x24 CALLDATALOAD PUSH1 0x1 PUSH1 0x1 PUSH1 0xA0 SHL SUB DUP2 AND SWAP1 DUP2 SWAP1 SUB PUSH2 0x163 JUMPI PUSH1 0x4 CALLDATALOAD PUSH1 0x0 MSTORE PUSH1 0x4 PUSH1 0x20 MSTORE PUSH1 0xB PUSH1 0x40 PUSH1 0x0 KECCAK256 ADD SWAP1 PUSH1 0x0 MSTORE PUSH1 0x20 MSTORE PUSH1 0x20 PUSH1 0xFF PUSH1 0x40 PUSH1 0x0 KECCAK256 SLOAD AND PUSH1 0x40 MLOAD SWAP1 ISZERO ISZERO DUP2 MSTORE RETURN JUMPDEST CALLVALUE PUSH2 0x163 JUMPI PUSH1 0x0 CALLDATASIZE PUSH1 0x3 NOT ADD SLT PUSH2 0x163 JUMPI PUSH2 0x9A5 PUSH2 0x12B1 JUMP JUMPDEST PUSH1 0x0 DUP1 SLOAD PUSH1 0x1 PUSH1 0x1 PUSH1 0xA0 SHL SUB NOT DUP2 AND DUP3 SSTORE PUSH1 0x1 PUSH1 0x1 PUSH1 0xA0 SHL SUB AND PUSH32 0x8BE0079C531659141344CD1FD0A4F28419497F9722A3DAAFE3B4186F6B6457E0 DUP3 DUP1 LOG3 STOP JUMPDEST CALLVALUE PUSH2 0x163 JUMPI PUSH1 0x40 CALLDATASIZE PUSH1 0x3 NOT ADD SLT PUSH2 0x163 JUMPI PUSH1 0x4 CALLDATALOAD PUSH1 0x24 CALLDATALOAD SWAP1 DUP1 PUSH1 0x0 MSTORE PUSH1 0x20 PUSH1 0x4 DUP2 MSTORE PUSH1 0x40 PUSH1 0x0 KECCAK256 CALLER PUSH1 0x0 MSTORE PUSH1 0xB DUP2 ADD DUP3 MSTORE PUSH2 0xA27 PUSH1 0xFF PUSH1 0x40 PUSH1 0x0 KECCAK256 SLOAD AND PUSH2 0x1390 JUMP JUMPDEST CALLER PUSH1 0x0 MSTORE PUSH1 0xC DUP2 ADD DUP3 MSTORE PUSH1 0xFF PUSH1 0x40 PUSH1 0x0 KECCAK256 SLOAD AND PUSH2 0xB5F JUMPI PUSH2 0xA51 PUSH1 0x7 DUP3 ADD SLOAD PUSH1 0x4 DUP4 ADD SLOAD SWAP1 PUSH2 0x13E1 JUMP JUMPDEST TIMESTAMP LT ISZERO PUSH2 0xB29 JUMPI PUSH1 0xF DUP2 ADD DUP1 SLOAD DUP6 GT ISZERO PUSH2 0xAF0 JUMPI PUSH1 0x5 DUP3 ADD SLOAD DUP6 LT PUSH2 0xAB6 JUMPI PUSH32 0xE54EFF26401BF69B81B26F60BD85EF47F5D85275C1D268D84F68D6897431C47 SWAP3 SWAP2 DUP6 PUSH1 0xE SWAP3 SSTORE ADD CALLER PUSH1 0x1 PUSH1 0x1 PUSH1 0x60 SHL SUB PUSH1 0xA0 SHL DUP3 SLOAD AND OR SWAP1 SSTORE PUSH1 0x40 MLOAD SWAP4 DUP5 MSTORE CALLER SWAP4 LOG3 STOP JUMPDEST PUSH1 0x40 MLOAD PUSH3 0x461BCD PUSH1 0xE5 SHL DUP2 MSTORE PUSH1 0x4 DUP2 ADD DUP5 SWAP1 MSTORE PUSH1 0x12 PUSH1 0x24 DUP3 ADD MSTORE PUSH18 0x10995B1BDDC81B5A5B88191A5CD8DBDD5B9D PUSH1 0x72 SHL PUSH1 0x44 DUP3 ADD MSTORE PUSH1 0x64 SWAP1 REVERT JUMPDEST PUSH1 0x40 MLOAD PUSH3 0x461BCD PUSH1 0xE5 SHL DUP2 MSTORE PUSH1 0x4 DUP2 ADD DUP5 SWAP1 MSTORE PUSH1 0x11 PUSH1 0x24 DUP3 ADD MSTORE PUSH17 0x125B98DC99585CD948191A5CD8DBDD5B9D PUSH1 0x7A SHL PUSH1 0x44 DUP3 ADD MSTORE PUSH1 0x64 SWAP1 REVERT JUMPDEST PUSH1 0x40 MLOAD PUSH3 0x461BCD PUSH1 0xE5 SHL DUP2 MSTORE PUSH1 0x4 DUP2 ADD DUP4 SWAP1 MSTORE PUSH1 0xE PUSH1 0x24 DUP3 ADD MSTORE PUSH14 0x105D58DD1A5BDB8818DB1BDCD959 PUSH1 0x92 SHL PUSH1 0x44 DUP3 ADD MSTORE PUSH1 0x64 SWAP1 REVERT JUMPDEST PUSH1 0x40 MLOAD PUSH3 0x461BCD PUSH1 0xE5 SHL DUP2 MSTORE PUSH1 0x4 DUP2 ADD DUP4 SWAP1 MSTORE PUSH1 0x16 PUSH1 0x24 DUP3 ADD MSTORE PUSH22 0x416C726561647920776F6E2070726576696F75736C79 PUSH1 0x50 SHL PUSH1 0x44 DUP3 ADD MSTORE PUSH1 0x64 SWAP1 REVERT JUMPDEST CALLVALUE PUSH2 0x163 JUMPI PUSH1 0x20 DUP1 PUSH1 0x3 NOT CALLDATASIZE ADD SLT PUSH2 0x163 JUMPI PUSH1 0x4 CALLDATALOAD SWAP1 PUSH2 0xBBB PUSH2 0x136D JUMP JUMPDEST DUP2 PUSH1 0x0 MSTORE PUSH1 0x4 DUP2 MSTORE PUSH1 0x40 PUSH1 0x0 KECCAK256 SWAP2 PUSH2 0xBDC PUSH1 0x7 DUP5 ADD SLOAD PUSH1 0x4 DUP6 ADD SLOAD SWAP1 PUSH2 0x13E1 JUMP JUMPDEST TIMESTAMP LT PUSH2 0xF78 JUMPI PUSH1 0x10 DUP4 ADD SWAP3 PUSH1 0xFF DUP5 SLOAD AND PUSH2 0xF49 JUMPI PUSH1 0x8 DUP2 ADD SLOAD PUSH1 0x1 SWAP4 DUP5 DUP4 ADD SLOAD SWAP6 PUSH1 0xA DUP5 ADD SWAP3 DUP4 SLOAD SWAP1 PUSH2 0xC0F DUP3 DUP11 PUSH2 0x12DD JUMP JUMPDEST GT PUSH2 0xF0C JUMPI PUSH1 0xE DUP6 ADD SLOAD PUSH1 0x1 PUSH1 0x1 PUSH1 0xA0 SHL SUB SWAP2 SWAP1 DUP3 AND DUP1 PUSH2 0xEF9 JUMPI POP PUSH2 0xC66 PUSH2 0xC37 DUP9 PUSH2 0x13FB JUMP JUMPDEST SWAP2 PUSH2 0xC61 PUSH1 0x5 DUP10 ADD SLOAD SWAP2 JUMPDEST PUSH2 0xC5B PUSH2 0x2710 PUSH2 0xC54 PUSH1 0x2 SLOAD DUP7 PUSH2 0x12DD JUMP JUMPDEST DIV DUP5 PUSH2 0x13EE JUMP JUMPDEST SWAP13 PUSH2 0x12DD JUMP JUMPDEST PUSH2 0x13EE JUMP JUMPDEST PUSH1 0x40 MLOAD PUSH4 0xA9059CBB PUSH1 0xE0 SHL DUP2 MSTORE PUSH1 0x1 PUSH1 0x1 PUSH1 0xA0 SHL SUB DUP4 AND PUSH1 0x4 DUP3 ADD MSTORE PUSH1 0x24 DUP2 ADD DUP3 SWAP1 MSTORE SWAP1 SWAP10 SWAP1 DUP6 DUP2 PUSH1 0x44 DUP2 PUSH1 0x0 PUSH32 0x0 DUP10 AND GAS CALL SWAP1 DUP2 ISZERO PUSH2 0x8F7 JUMPI PUSH1 0x0 SWAP2 PUSH2 0xEDC JUMPI JUMPDEST POP ISZERO PUSH2 0xEA9 JUMPI DUP6 SLOAD PUSH1 0x0 NOT DUP2 ADD SWAP1 DUP2 GT PUSH2 0xE93 JUMPI DUP1 ISZERO PUSH2 0xE7D JUMPI DUP10 SWAP2 SWAP5 SWAP4 SWAP5 DIV SWAP6 DUP2 PUSH1 0x0 SWAP1 JUMPDEST PUSH2 0xE03 JUMPI JUMPDEST POP POP POP DUP3 PUSH1 0x6 SWAP2 AND SWAP6 DUP7 PUSH1 0x0 MSTORE PUSH1 0xC DUP2 ADD DUP6 MSTORE PUSH1 0x40 PUSH1 0x0 KECCAK256 SWAP3 PUSH1 0xFF NOT SWAP4 DUP11 DUP6 DUP3 SLOAD AND OR SWAP1 SSTORE DUP10 DUP5 DUP3 SLOAD AND OR SWAP1 SSTORE ADD PUSH2 0xD2A DUP2 SLOAD PUSH2 0x12F0 JUMP JUMPDEST SWAP1 SSTORE DUP6 PUSH1 0x0 MSTORE PUSH1 0x4 DUP4 MSTORE DUP7 PUSH1 0x40 PUSH1 0x0 KECCAK256 SWAP3 TIMESTAMP PUSH1 0x7 DUP6 ADD SSTORE PUSH1 0xE DUP5 ADD PUSH1 0x1 PUSH1 0x1 PUSH1 0x60 SHL SUB PUSH1 0xA0 SHL DUP2 SLOAD AND SWAP1 SSTORE PUSH1 0x0 PUSH1 0xF DUP6 ADD SSTORE PUSH1 0x0 PUSH1 0x8 DUP6 ADD SSTORE PUSH1 0x10 DUP5 ADD DUP4 DUP2 SLOAD AND SWAP1 SSTORE PUSH1 0x0 PUSH1 0xD PUSH1 0xA DUP7 ADD SWAP6 ADD SWAP3 JUMPDEST PUSH2 0xDBB JUMPI JUMPDEST POP DUP9 DUP9 PUSH32 0x81E5A25D0DD0F1E611E25AAE7EF5CF1848EF35F6E90C7C008CDC30B1D07C74E1 PUSH1 0x60 DUP11 DUP11 DUP16 DUP12 PUSH1 0x40 MLOAD SWAP4 DUP5 MSTORE DUP4 ADD MSTORE PUSH1 0x40 DUP3 ADD MSTORE LOG2 DUP1 SSTORE STOP JUMPDEST DUP5 SLOAD DUP2 LT ISZERO PUSH2 0xDFE JUMPI SWAP1 PUSH2 0xDF5 DUP3 DUP3 PUSH2 0xDD7 DUP14 SWAP8 SWAP7 SWAP6 DUP10 PUSH2 0x12FF JUMP JUMPDEST SWAP1 SLOAD SWAP1 PUSH1 0x3 SHL SHR AND PUSH1 0x0 MSTORE DUP4 DUP9 MSTORE PUSH1 0x40 PUSH1 0x0 KECCAK256 DUP6 DUP2 SLOAD AND SWAP1 SSTORE PUSH2 0x12F0 JUMP JUMPDEST SWAP1 SWAP2 SWAP3 SWAP4 PUSH2 0xD79 JUMP JUMPDEST PUSH2 0xD7E JUMP JUMPDEST DUP6 DUP3 SWAP7 SWAP6 SWAP7 SLOAD DUP3 LT ISZERO PUSH2 0xE74 JUMPI SWAP1 PUSH2 0xE3B SWAP2 PUSH2 0xE1F DUP3 DUP6 PUSH2 0x12FF JUMP JUMPDEST SWAP1 SLOAD SWAP1 DUP3 PUSH1 0x3 SWAP3 DUP2 DUP11 AND SWAP3 DUP5 SHL SHR AND SUB PUSH2 0xE44 JUMPI JUMPDEST POP POP PUSH2 0x12F0 JUMP JUMPDEST DUP3 SWAP6 SWAP5 SWAP6 PUSH2 0xCED JUMP JUMPDEST PUSH2 0xE4E DUP4 DUP7 PUSH2 0x12FF JUMP JUMPDEST SWAP1 SLOAD SWAP2 SHL SHR AND PUSH1 0x0 MSTORE PUSH1 0x5 DUP9 MSTORE PUSH1 0x40 PUSH1 0x0 KECCAK256 PUSH2 0xE6B DUP11 DUP3 SLOAD PUSH2 0x13E1 JUMP JUMPDEST SWAP1 SSTORE DUP6 DUP15 PUSH2 0xE34 JUMP JUMPDEST POP SWAP5 SWAP4 SWAP5 PUSH2 0xCF2 JUMP JUMPDEST PUSH4 0x4E487B71 PUSH1 0xE0 SHL PUSH1 0x0 MSTORE PUSH1 0x12 PUSH1 0x4 MSTORE PUSH1 0x24 PUSH1 0x0 REVERT JUMPDEST PUSH4 0x4E487B71 PUSH1 0xE0 SHL PUSH1 0x0 MSTORE PUSH1 0x11 PUSH1 0x4 MSTORE PUSH1 0x24 PUSH1 0x0 REVERT JUMPDEST PUSH1 0x40 MLOAD PUSH3 0x461BCD PUSH1 0xE5 SHL DUP2 MSTORE PUSH1 0x4 DUP2 ADD DUP7 SWAP1 MSTORE PUSH1 0xB PUSH1 0x24 DUP3 ADD MSTORE PUSH11 0x14185E5BDD5D0819985A5B PUSH1 0xAA SHL PUSH1 0x44 DUP3 ADD MSTORE PUSH1 0x64 SWAP1 REVERT JUMPDEST PUSH2 0xEF3 SWAP2 POP DUP7 RETURNDATASIZE DUP9 GT PUSH2 0x8F0 JUMPI PUSH2 0x8E2 DUP2 DUP4 PUSH2 0x124F JUMP JUMPDEST DUP12 PUSH2 0xCC7 JUMP JUMPDEST PUSH2 0xC66 SWAP1 SWAP2 PUSH2 0xC61 PUSH1 0xF DUP10 ADD SLOAD SWAP2 PUSH2 0xC42 JUMP JUMPDEST PUSH1 0x40 MLOAD PUSH3 0x461BCD PUSH1 0xE5 SHL DUP2 MSTORE PUSH1 0x4 DUP2 ADD DUP5 SWAP1 MSTORE PUSH1 0x15 PUSH1 0x24 DUP3 ADD MSTORE PUSH21 0x436F6E747269627574696F6E732070656E64696E67 PUSH1 0x58 SHL PUSH1 0x44 DUP3 ADD MSTORE PUSH1 0x64 SWAP1 REVERT JUMPDEST PUSH1 0x40 MLOAD PUSH3 0x461BCD PUSH1 0xE5 SHL DUP2 MSTORE PUSH1 0x4 DUP2 ADD DUP5 SWAP1 MSTORE PUSH1 0x7 PUSH1 0x24 DUP3 ADD MSTORE PUSH7 0x14D95D1D1B1959 PUSH1 0xCA SHL PUSH1 0x44 DUP3 ADD MSTORE PUSH1 0x64 SWAP1 REVERT JUMPDEST PUSH1 0x40 MLOAD PUSH3 0x461BCD PUSH1 0xE5 SHL DUP2 MSTORE PUSH1 0x4 DUP2 ADD DUP4 SWAP1 MSTORE PUSH1 0xF PUSH1 0x24 DUP3 ADD MSTORE PUSH15 0x41756374696F6E206F6E676F696E67 PUSH1 0x88 SHL PUSH1 0x44 DUP3 ADD MSTORE PUSH1 0x64 SWAP1 REVERT JUMPDEST CALLVALUE PUSH2 0x163 JUMPI PUSH1 0x0 CALLDATASIZE PUSH1 0x3 NOT ADD SLT PUSH2 0x163 JUMPI PUSH2 0xFC8 PUSH2 0x136D JUMP JUMPDEST CALLER PUSH1 0x0 MSTORE PUSH1 0x20 PUSH1 0x5 DUP2 MSTORE PUSH1 0x40 PUSH1 0x0 KECCAK256 SLOAD SWAP1 DUP2 ISZERO PUSH2 0x10D7 JUMPI CALLER PUSH1 0x0 DUP2 DUP2 MSTORE PUSH1 0x5 DUP4 MSTORE PUSH1 0x40 DUP1 DUP3 KECCAK256 DUP3 SWAP1 SSTORE MLOAD PUSH4 0xA9059CBB PUSH1 0xE0 SHL DUP2 MSTORE PUSH1 0x4 DUP2 ADD SWAP3 SWAP1 SWAP3 MSTORE PUSH1 0x24 DUP3 ADD DUP5 SWAP1 MSTORE DUP3 SWAP1 DUP3 SWAP1 PUSH1 0x44 SWAP1 DUP3 SWAP1 PUSH1 0x1 PUSH1 0x1 PUSH1 0xA0 SHL SUB PUSH32 0x0 AND GAS CALL SWAP1 DUP2 ISZERO PUSH2 0x8F7 JUMPI PUSH1 0x0 SWAP2 PUSH2 0x10BA JUMPI JUMPDEST POP ISZERO PUSH2 0x1086 JUMPI PUSH32 0xEE503BEE2BB6A87E57BC57DB795F98137327401A0E7B7CE42E37926CC1A9CA4D SWAP1 PUSH1 0x40 MLOAD SWAP3 DUP4 MSTORE CALLER SWAP3 LOG2 PUSH1 0x1 DUP1 SSTORE STOP JUMPDEST PUSH1 0x64 SWAP1 PUSH1 0x40 MLOAD SWAP1 PUSH3 0x461BCD PUSH1 0xE5 SHL DUP3 MSTORE PUSH1 0x4 DUP3 ADD MSTORE PUSH1 0xD PUSH1 0x24 DUP3 ADD MSTORE PUSH13 0x15DA5D1A191C985DC819985A5B PUSH1 0x9A SHL PUSH1 0x44 DUP3 ADD MSTORE REVERT JUMPDEST PUSH2 0x10D1 SWAP2 POP DUP3 RETURNDATASIZE DUP5 GT PUSH2 0x8F0 JUMPI PUSH2 0x8E2 DUP2 DUP4 PUSH2 0x124F JUMP JUMPDEST DUP4 PUSH2 0x104F JUMP JUMPDEST PUSH1 0x64 SWAP1 PUSH1 0x40 MLOAD SWAP1 PUSH3 0x461BCD PUSH1 0xE5 SHL DUP3 MSTORE PUSH1 0x4 DUP3 ADD MSTORE PUSH1 0xA PUSH1 0x24 DUP3 ADD MSTORE PUSH10 0x4E6F2062616C616E6365 PUSH1 0xB0 SHL PUSH1 0x44 DUP3 ADD MSTORE REVERT JUMPDEST CALLVALUE PUSH2 0x163 JUMPI PUSH1 0x0 CALLDATASIZE PUSH1 0x3 NOT ADD SLT PUSH2 0x163 JUMPI PUSH1 0x20 PUSH1 0x2 SLOAD PUSH1 0x40 MLOAD SWAP1 DUP2 MSTORE RETURN JUMPDEST CALLVALUE PUSH2 0x163 JUMPI PUSH1 0x20 CALLDATASIZE PUSH1 0x3 NOT ADD SLT PUSH2 0x163 JUMPI PUSH1 0x4 CALLDATALOAD PUSH2 0x1142 PUSH2 0x12B1 JUMP JUMPDEST PUSH2 0x3E8 DUP2 GT PUSH2 0x1150 JUMPI PUSH1 0x2 SSTORE STOP JUMPDEST PUSH1 0x40 MLOAD PUSH3 0x461BCD PUSH1 0xE5 SHL DUP2 MSTORE PUSH1 0x20 PUSH1 0x4 DUP3 ADD MSTORE PUSH1 0xC PUSH1 0x24 DUP3 ADD MSTORE PUSH12 0x8CCACA40E8DEDE40D0D2CED PUSH1 0xA3 SHL PUSH1 0x44 DUP3 ADD MSTORE PUSH1 0x64 SWAP1 REVERT JUMPDEST CALLVALUE PUSH2 0x163 JUMPI PUSH1 0x0 CALLDATASIZE PUSH1 0x3 NOT ADD SLT PUSH2 0x163 JUMPI PUSH1 0x40 MLOAD PUSH32 0x0 PUSH1 0x1 PUSH1 0x1 PUSH1 0xA0 SHL SUB AND DUP2 MSTORE PUSH1 0x20 SWAP1 RETURN JUMPDEST CALLVALUE PUSH2 0x163 JUMPI PUSH1 0x20 CALLDATASIZE PUSH1 0x3 NOT ADD SLT PUSH2 0x163 JUMPI PUSH1 0x20 SWAP1 PUSH1 0x1 PUSH1 0x1 PUSH1 0xA0 SHL SUB PUSH2 0x11ED PUSH2 0x11FF JUMP JUMPDEST AND PUSH1 0x0 MSTORE PUSH1 0x5 DUP3 MSTORE PUSH1 0x40 PUSH1 0x0 KECCAK256 SLOAD DUP2 MSTORE RETURN JUMPDEST PUSH1 0x4 CALLDATALOAD SWAP1 PUSH1 0x1 PUSH1 0x1 PUSH1 0xA0 SHL SUB DUP3 AND DUP3 SUB PUSH2 0x163 JUMPI JUMP JUMPDEST SWAP1 PUSH1 0x1 DUP3 DUP2 SHR SWAP3 AND DUP1 ISZERO PUSH2 0x1245 JUMPI JUMPDEST PUSH1 0x20 DUP4 LT EQ PUSH2 0x122F JUMPI JUMP JUMPDEST PUSH4 0x4E487B71 PUSH1 0xE0 SHL PUSH1 0x0 MSTORE PUSH1 0x22 PUSH1 0x4 MSTORE PUSH1 0x24 PUSH1 0x0 REVERT JUMPDEST SWAP2 PUSH1 0x7F AND SWAP2 PUSH2 0x1224 JUMP JUMPDEST SWAP1 PUSH1 0x1F DUP1 NOT SWAP2 ADD AND DUP2 ADD SWAP1 DUP2 LT PUSH8 0xFFFFFFFFFFFFFFFF DUP3 GT OR PUSH2 0x581 JUMPI PUSH1 0x40 MSTORE JUMP JUMPDEST SWAP2 SWAP1 DUP3 MLOAD SWAP3 DUP4 DUP3 MSTORE PUSH1 0x0 JUMPDEST DUP5 DUP2 LT PUSH2 0x129D JUMPI POP POP DUP3 PUSH1 0x0 PUSH1 0x20 DUP1 SWAP5 SWAP6 DUP5 ADD ADD MSTORE PUSH1 0x1F DUP1 NOT SWAP2 ADD AND ADD ADD SWAP1 JUMP JUMPDEST PUSH1 0x20 DUP2 DUP4 ADD DUP2 ADD MLOAD DUP5 DUP4 ADD DUP3 ADD MSTORE ADD PUSH2 0x127C JUMP JUMPDEST PUSH1 0x0 SLOAD PUSH1 0x1 PUSH1 0x1 PUSH1 0xA0 SHL SUB AND CALLER SUB PUSH2 0x12C5 JUMPI JUMP JUMPDEST PUSH1 0x40 MLOAD PUSH4 0x118CDAA7 PUSH1 0xE0 SHL DUP2 MSTORE CALLER PUSH1 0x4 DUP3 ADD MSTORE PUSH1 0x24 SWAP1 REVERT JUMPDEST DUP2 DUP2 MUL SWAP3 SWAP2 DUP2 ISZERO SWAP2 DUP5 DIV EQ OR ISZERO PUSH2 0xE93 JUMPI JUMP JUMPDEST PUSH1 0x0 NOT DUP2 EQ PUSH2 0xE93 JUMPI PUSH1 0x1 ADD SWAP1 JUMP JUMPDEST DUP1 SLOAD DUP3 LT ISZERO PUSH2 0x1317 JUMPI PUSH1 0x0 MSTORE PUSH1 0x20 PUSH1 0x0 KECCAK256 ADD SWAP1 PUSH1 0x0 SWAP1 JUMP JUMPDEST PUSH4 0x4E487B71 PUSH1 0xE0 SHL PUSH1 0x0 MSTORE PUSH1 0x32 PUSH1 0x4 MSTORE PUSH1 0x24 PUSH1 0x0 REVERT JUMPDEST DUP1 SLOAD PUSH9 0x10000000000000000 DUP2 LT ISZERO PUSH2 0x581 JUMPI PUSH2 0x134F SWAP2 PUSH1 0x1 DUP3 ADD DUP2 SSTORE PUSH2 0x12FF JUMP JUMPDEST DUP2 SWAP3 SWAP2 SLOAD SWAP1 PUSH1 0x3 SHL SWAP2 PUSH1 0x1 DUP1 PUSH1 0xA0 SHL SUB DUP1 SWAP2 AND DUP4 SHL SWAP3 SHL NOT AND OR SWAP1 SSTORE JUMP JUMPDEST PUSH1 0x2 PUSH1 0x1 SLOAD EQ PUSH2 0x137E JUMPI PUSH1 0x2 PUSH1 0x1 SSTORE JUMP JUMPDEST PUSH1 0x40 MLOAD PUSH4 0x3EE5AEB5 PUSH1 0xE0 SHL DUP2 MSTORE PUSH1 0x4 SWAP1 REVERT JUMPDEST ISZERO PUSH2 0x1397 JUMPI JUMP JUMPDEST PUSH1 0x40 MLOAD PUSH3 0x461BCD PUSH1 0xE5 SHL DUP2 MSTORE PUSH1 0x20 PUSH1 0x4 DUP3 ADD MSTORE PUSH1 0xA PUSH1 0x24 DUP3 ADD MSTORE PUSH10 0x2737BA1036B2B6B132B9 PUSH1 0xB1 SHL PUSH1 0x44 DUP3 ADD MSTORE PUSH1 0x64 SWAP1 REVERT JUMPDEST SWAP1 DUP2 PUSH1 0x20 SWAP2 SUB SLT PUSH2 0x163 JUMPI MLOAD DUP1 ISZERO ISZERO DUP2 SUB PUSH2 0x163 JUMPI SWAP1 JUMP JUMPDEST SWAP2 SWAP1 DUP3 ADD DUP1 SWAP3 GT PUSH2 0xE93 JUMPI JUMP JUMPDEST SWAP2 SWAP1 DUP3 SUB SWAP2 DUP3 GT PUSH2 0xE93 JUMPI JUMP JUMPDEST PUSH1 0x0 SWAP1 DUP2 MSTORE PUSH1 0x20 PUSH1 0x4 DUP2 MSTORE PUSH1 0x40 DUP1 DUP4 KECCAK256 DUP4 SWAP2 PUSH1 0xA DUP3 ADD SWAP3 PUSH1 0xC DUP5 SLOAD SWAP4 ADD SWAP1 JUMPDEST DUP4 DUP2 LT PUSH2 0x144E JUMPI POP POP POP ISZERO PUSH2 0x143A JUMPI DUP3 MSTORE SWAP1 KECCAK256 SLOAD PUSH1 0x1 PUSH1 0x1 PUSH1 0xA0 SHL SUB AND SWAP1 JUMP JUMPDEST PUSH4 0x4E487B71 PUSH1 0xE0 SHL DUP4 MSTORE PUSH1 0x32 PUSH1 0x4 MSTORE PUSH1 0x24 DUP4 REVERT JUMPDEST PUSH2 0x1458 DUP2 DUP7 PUSH2 0x12FF JUMP JUMPDEST PUSH1 0x1 DUP1 PUSH1 0xA0 SHL SUB DUP1 SWAP3 SLOAD PUSH1 0x3 SWAP3 DUP4 SHL SHR AND DUP10 MSTORE DUP4 DUP9 MSTORE PUSH1 0xFF DUP6 DUP11 KECCAK256 SLOAD AND ISZERO PUSH2 0x148A JUMPI POP POP PUSH2 0x1485 SWAP1 PUSH2 0x12F0 JUMP JUMPDEST PUSH2 0x141A JUMP JUMPDEST SWAP7 POP SWAP7 POP SWAP3 POP POP POP PUSH2 0x149B SWAP2 PUSH2 0x12FF JUMP JUMPDEST SWAP1 SLOAD SWAP2 SHL SHR AND SWAP1 JUMP INVALID LOG2 PUSH5 0x6970667358 0x22 SLT KECCAK256 0xD7 PUSH13 0x78068A1FDEC9833A1D8D5F7BAF 0xC9 RETURNDATACOPY SELFBALANCE LOG0 0x4E 0xD3 LOG2 SHR EXTCODESIZE 0xD TIMESTAMP MSTORE 0x4F PUSH18 0x32BB6D64736F6C6343000814003300000000 "},"methodIdentifiers":{"BPS_DENOMINATOR()":"e1a45218","createGroup(string,uint256,uint256,uint256,uint256,uint256)":"e8b27a53","depositContribution(uint256)":"830125ba","groupCount()":"8f23b326","groups(uint256)":"96324bd4","isMemberOf(uint256,address)":"788df6b7","joinGroup(uint256)":"eed02e4b","owner()":"8da5cb5b","placeBid(uint256,uint256)":"57c90de5","platformFeeBps()":"22dcd13e","renounceOwnership()":"715018a6","setPlatformFee(uint256)":"12e8e2c3","settleAuction(uint256)":"2e993611","transferOwnership(address)":"f2fde38b","usdcToken()":"11eac855","userBalance(address)":"0103c92b","withdrawDividends()":"2e92abdd"}}}}}